{
	"CCIPTokenSenderFujiSepolia.sol": {
		"CCIPTokenSenderFujiSepolia": {
			"abi": [
				{
					"inputs": [],
					"stateMutability": "nonpayable",
					"type": "constructor"
				},
				{
					"inputs": [
						{
							"internalType": "uint256",
							"name": "currentBalance",
							"type": "uint256"
						},
						{
							"internalType": "uint256",
							"name": "calculatedFees",
							"type": "uint256"
						}
					],
					"name": "NotEnoughBalance",
					"type": "error"
				},
				{
					"inputs": [],
					"name": "NothingToWithdraw",
					"type": "error"
				},
				{
					"anonymous": false,
					"inputs": [
						{
							"indexed": true,
							"internalType": "bytes32",
							"name": "messageId",
							"type": "bytes32"
						},
						{
							"indexed": true,
							"internalType": "uint64",
							"name": "destinationChainSelector",
							"type": "uint64"
						},
						{
							"indexed": false,
							"internalType": "address",
							"name": "receiver",
							"type": "address"
						},
						{
							"indexed": false,
							"internalType": "address",
							"name": "token",
							"type": "address"
						},
						{
							"indexed": false,
							"internalType": "uint256",
							"name": "tokenAmount",
							"type": "uint256"
						},
						{
							"indexed": false,
							"internalType": "address",
							"name": "feeToken",
							"type": "address"
						},
						{
							"indexed": false,
							"internalType": "uint256",
							"name": "fees",
							"type": "uint256"
						}
					],
					"name": "TokensTransferred",
					"type": "event"
				},
				{
					"inputs": [
						{
							"internalType": "address",
							"name": "account",
							"type": "address"
						}
					],
					"name": "balancesOf",
					"outputs": [
						{
							"internalType": "uint256",
							"name": "linkBalance",
							"type": "uint256"
						},
						{
							"internalType": "uint256",
							"name": "bnmTokenBalance",
							"type": "uint256"
						}
					],
					"stateMutability": "view",
					"type": "function"
				},
				{
					"inputs": [],
					"name": "owner",
					"outputs": [
						{
							"internalType": "address",
							"name": "",
							"type": "address"
						}
					],
					"stateMutability": "view",
					"type": "function"
				},
				{
					"inputs": [
						{
							"internalType": "address",
							"name": "_receiver",
							"type": "address"
						},
						{
							"internalType": "uint256",
							"name": "_amount",
							"type": "uint256"
						}
					],
					"name": "transferToSepolia",
					"outputs": [
						{
							"internalType": "bytes32",
							"name": "messageId",
							"type": "bytes32"
						}
					],
					"stateMutability": "nonpayable",
					"type": "function"
				},
				{
					"inputs": [
						{
							"internalType": "address",
							"name": "_beneficiary",
							"type": "address"
						},
						{
							"internalType": "address",
							"name": "_token",
							"type": "address"
						}
					],
					"name": "withdrawToken",
					"outputs": [],
					"stateMutability": "nonpayable",
					"type": "function"
				}
			],
			"devdoc": {
				"kind": "dev",
				"methods": {},
				"version": 1
			},
			"evm": {
				"assembly": "    /* \"CCIPTokenSenderFujiSepolia.sol\":461:4176  contract CCIPTokenSenderFujiSepolia {... */\n  mstore(0x40, 0x80)\n    /* \"CCIPTokenSenderFujiSepolia.sol\":679:721  0x0b9d5D9136855f6FEc3c0993feE6E9CE8a297846 */\n  0x0b9d5d9136855f6fec3c0993fee6e9ce8a297846\n    /* \"CCIPTokenSenderFujiSepolia.sol\":665:721  address link= 0x0b9d5D9136855f6FEc3c0993feE6E9CE8a297846 */\n  0x03\n  exp(0x0100, 0x00)\n  dup2\n  sload\n  dup2\n  0xffffffffffffffffffffffffffffffffffffffff\n  mul\n  not\n  and\n  swap1\n  dup4\n  0xffffffffffffffffffffffffffffffffffffffff\n  and\n  mul\n  or\n  swap1\n  sstore\n  pop\n    /* \"CCIPTokenSenderFujiSepolia.sol\":837:879  0xF694E193200268f9a4868e4Aa017A0118C9a8177 */\n  0xf694e193200268f9a4868e4aa017a0118c9a8177\n    /* \"CCIPTokenSenderFujiSepolia.sol\":813:879  address routerAddress = 0xF694E193200268f9a4868e4Aa017A0118C9a8177 */\n  0x04\n  exp(0x0100, 0x00)\n  dup2\n  sload\n  dup2\n  0xffffffffffffffffffffffffffffffffffffffff\n  mul\n  not\n  and\n  swap1\n  dup4\n  0xffffffffffffffffffffffffffffffffffffffff\n  and\n  mul\n  or\n  swap1\n  sstore\n  pop\n    /* \"CCIPTokenSenderFujiSepolia.sol\":904:946  0xD21341536c5cF5EB1bcb58f6723cE26e8D8E90e4 */\n  0xd21341536c5cf5eb1bcb58f6723ce26e8d8e90e4\n    /* \"CCIPTokenSenderFujiSepolia.sol\":885:946  address bnmToken = 0xD21341536c5cF5EB1bcb58f6723cE26e8D8E90e4 */\n  0x05\n  exp(0x0100, 0x00)\n  dup2\n  sload\n  dup2\n  0xffffffffffffffffffffffffffffffffffffffff\n  mul\n  not\n  and\n  swap1\n  dup4\n  0xffffffffffffffffffffffffffffffffffffffff\n  and\n  mul\n  or\n  swap1\n  sstore\n  pop\n    /* \"CCIPTokenSenderFujiSepolia.sol\":1078:1098  16015286601757825753 */\n  0xde41ba4fc9d91ad9\n    /* \"CCIPTokenSenderFujiSepolia.sol\":1044:1098  uint64 destinationChainSelector = 16015286601757825753 */\n  0x05\n  exp(0x0100, 0x14)\n  dup2\n  sload\n  dup2\n  0xffffffffffffffff\n  mul\n  not\n  and\n  swap1\n  dup4\n  0xffffffffffffffff\n  and\n  mul\n  or\n  swap1\n  sstore\n  pop\n    /* \"CCIPTokenSenderFujiSepolia.sol\":1774:1977  constructor() {... */\n  callvalue\n  dup1\n  iszero\n  tag_1\n  jumpi\n  0x00\n  dup1\n  revert\ntag_1:\n  pop\n    /* \"CCIPTokenSenderFujiSepolia.sol\":1806:1816  msg.sender */\n  caller\n    /* \"CCIPTokenSenderFujiSepolia.sol\":1798:1803  owner */\n  0x02\n  0x00\n    /* \"CCIPTokenSenderFujiSepolia.sol\":1798:1816  owner = msg.sender */\n  0x0100\n  exp\n  dup2\n  sload\n  dup2\n  0xffffffffffffffffffffffffffffffffffffffff\n  mul\n  not\n  and\n  swap1\n  dup4\n  0xffffffffffffffffffffffffffffffffffffffff\n  and\n  mul\n  or\n  swap1\n  sstore\n  pop\n    /* \"CCIPTokenSenderFujiSepolia.sol\":1849:1862  routerAddress */\n  0x04\n  0x00\n  swap1\n  sload\n  swap1\n  0x0100\n  exp\n  swap1\n  div\n  0xffffffffffffffffffffffffffffffffffffffff\n  and\n    /* \"CCIPTokenSenderFujiSepolia.sol\":1826:1832  router */\n  0x00\n  dup1\n    /* \"CCIPTokenSenderFujiSepolia.sol\":1826:1863  router = IRouterClient(routerAddress) */\n  0x0100\n  exp\n  dup2\n  sload\n  dup2\n  0xffffffffffffffffffffffffffffffffffffffff\n  mul\n  not\n  and\n  swap1\n  dup4\n  0xffffffffffffffffffffffffffffffffffffffff\n  and\n  mul\n  or\n  swap1\n  sstore\n  pop\n    /* \"CCIPTokenSenderFujiSepolia.sol\":1904:1908  link */\n  0x03\n  0x00\n  swap1\n  sload\n  swap1\n  0x0100\n  exp\n  swap1\n  div\n  0xffffffffffffffffffffffffffffffffffffffff\n  and\n    /* \"CCIPTokenSenderFujiSepolia.sol\":1873:1882  linkToken */\n  0x01\n  0x00\n    /* \"CCIPTokenSenderFujiSepolia.sol\":1873:1909  linkToken = LinkTokenInterface(link) */\n  0x0100\n  exp\n  dup2\n  sload\n  dup2\n  0xffffffffffffffffffffffffffffffffffffffff\n  mul\n  not\n  and\n  swap1\n  dup4\n  0xffffffffffffffffffffffffffffffffffffffff\n  and\n  mul\n  or\n  swap1\n  sstore\n  pop\n    /* \"CCIPTokenSenderFujiSepolia.sol\":1919:1928  linkToken */\n  0x01\n  0x00\n  swap1\n  sload\n  swap1\n  0x0100\n  exp\n  swap1\n  div\n  0xffffffffffffffffffffffffffffffffffffffff\n  and\n    /* \"CCIPTokenSenderFujiSepolia.sol\":1919:1936  linkToken.approve */\n  0xffffffffffffffffffffffffffffffffffffffff\n  and\n  0x095ea7b3\n    /* \"CCIPTokenSenderFujiSepolia.sol\":1937:1950  routerAddress */\n  0x04\n  0x00\n  swap1\n  sload\n  swap1\n  0x0100\n  exp\n  swap1\n  div\n  0xffffffffffffffffffffffffffffffffffffffff\n  and\n    /* \"CCIPTokenSenderFujiSepolia.sol\":1952:1969  type(uint256).max */\n  0xffffffffffffffffffffffffffffffffffffffffffffffffffffffffffffffff\n    /* \"CCIPTokenSenderFujiSepolia.sol\":1919:1970  linkToken.approve(routerAddress, type(uint256).max) */\n  mload(0x40)\n  dup4\n  0xffffffff\n  and\n  0xe0\n  shl\n  dup2\n  mstore\n  0x04\n  add\n  tag_4\n  swap3\n  swap2\n  swap1\n  tag_5\n  jump\t// in\ntag_4:\n  0x20\n  mload(0x40)\n  dup1\n  dup4\n  sub\n  dup2\n  0x00\n  dup8\n  gas\n  call\n  iszero\n  dup1\n  iszero\n  tag_7\n  jumpi\n  returndatasize\n  0x00\n  dup1\n  returndatacopy\n  revert(0x00, returndatasize)\ntag_7:\n  pop\n  pop\n  pop\n  pop\n  mload(0x40)\n  returndatasize\n  not(0x1f)\n  0x1f\n  dup3\n  add\n  and\n  dup3\n  add\n  dup1\n  0x40\n  mstore\n  pop\n  dup2\n  add\n  swap1\n  tag_8\n  swap2\n  swap1\n  tag_9\n  jump\t// in\ntag_8:\n  pop\n    /* \"CCIPTokenSenderFujiSepolia.sol\":461:4176  contract CCIPTokenSenderFujiSepolia {... */\n  jump(tag_10)\n    /* \"#utility.yul\":7:133   */\ntag_11:\n    /* \"#utility.yul\":44:51   */\n  0x00\n    /* \"#utility.yul\":84:126   */\n  0xffffffffffffffffffffffffffffffffffffffff\n    /* \"#utility.yul\":77:82   */\n  dup3\n    /* \"#utility.yul\":73:127   */\n  and\n    /* \"#utility.yul\":62:127   */\n  swap1\n  pop\n    /* \"#utility.yul\":7:133   */\n  swap2\n  swap1\n  pop\n  jump\t// out\n    /* \"#utility.yul\":139:235   */\ntag_12:\n    /* \"#utility.yul\":176:183   */\n  0x00\n    /* \"#utility.yul\":205:229   */\n  tag_25\n    /* \"#utility.yul\":223:228   */\n  dup3\n    /* \"#utility.yul\":205:229   */\n  tag_11\n  jump\t// in\ntag_25:\n    /* \"#utility.yul\":194:229   */\n  swap1\n  pop\n    /* \"#utility.yul\":139:235   */\n  swap2\n  swap1\n  pop\n  jump\t// out\n    /* \"#utility.yul\":241:359   */\ntag_13:\n    /* \"#utility.yul\":328:352   */\n  tag_27\n    /* \"#utility.yul\":346:351   */\n  dup2\n    /* \"#utility.yul\":328:352   */\n  tag_12\n  jump\t// in\ntag_27:\n    /* \"#utility.yul\":323:326   */\n  dup3\n    /* \"#utility.yul\":316:353   */\n  mstore\n    /* \"#utility.yul\":241:359   */\n  pop\n  pop\n  jump\t// out\n    /* \"#utility.yul\":365:442   */\ntag_14:\n    /* \"#utility.yul\":402:409   */\n  0x00\n    /* \"#utility.yul\":431:436   */\n  dup2\n    /* \"#utility.yul\":420:436   */\n  swap1\n  pop\n    /* \"#utility.yul\":365:442   */\n  swap2\n  swap1\n  pop\n  jump\t// out\n    /* \"#utility.yul\":448:566   */\ntag_15:\n    /* \"#utility.yul\":535:559   */\n  tag_30\n    /* \"#utility.yul\":553:558   */\n  dup2\n    /* \"#utility.yul\":535:559   */\n  tag_14\n  jump\t// in\ntag_30:\n    /* \"#utility.yul\":530:533   */\n  dup3\n    /* \"#utility.yul\":523:560   */\n  mstore\n    /* \"#utility.yul\":448:566   */\n  pop\n  pop\n  jump\t// out\n    /* \"#utility.yul\":572:904   */\ntag_5:\n    /* \"#utility.yul\":693:697   */\n  0x00\n    /* \"#utility.yul\":731:733   */\n  0x40\n    /* \"#utility.yul\":720:729   */\n  dup3\n    /* \"#utility.yul\":716:734   */\n  add\n    /* \"#utility.yul\":708:734   */\n  swap1\n  pop\n    /* \"#utility.yul\":744:815   */\n  tag_32\n    /* \"#utility.yul\":812:813   */\n  0x00\n    /* \"#utility.yul\":801:810   */\n  dup4\n    /* \"#utility.yul\":797:814   */\n  add\n    /* \"#utility.yul\":788:794   */\n  dup6\n    /* \"#utility.yul\":744:815   */\n  tag_13\n  jump\t// in\ntag_32:\n    /* \"#utility.yul\":825:897   */\n  tag_33\n    /* \"#utility.yul\":893:895   */\n  0x20\n    /* \"#utility.yul\":882:891   */\n  dup4\n    /* \"#utility.yul\":878:896   */\n  add\n    /* \"#utility.yul\":869:875   */\n  dup5\n    /* \"#utility.yul\":825:897   */\n  tag_15\n  jump\t// in\ntag_33:\n    /* \"#utility.yul\":572:904   */\n  swap4\n  swap3\n  pop\n  pop\n  pop\n  jump\t// out\n    /* \"#utility.yul\":991:1108   */\ntag_17:\n    /* \"#utility.yul\":1100:1101   */\n  0x00\n    /* \"#utility.yul\":1097:1098   */\n  dup1\n    /* \"#utility.yul\":1090:1102   */\n  revert\n    /* \"#utility.yul\":1237:1327   */\ntag_19:\n    /* \"#utility.yul\":1271:1278   */\n  0x00\n    /* \"#utility.yul\":1314:1319   */\n  dup2\n    /* \"#utility.yul\":1307:1320   */\n  iszero\n    /* \"#utility.yul\":1300:1321   */\n  iszero\n    /* \"#utility.yul\":1289:1321   */\n  swap1\n  pop\n    /* \"#utility.yul\":1237:1327   */\n  swap2\n  swap1\n  pop\n  jump\t// out\n    /* \"#utility.yul\":1333:1449   */\ntag_20:\n    /* \"#utility.yul\":1403:1424   */\n  tag_39\n    /* \"#utility.yul\":1418:1423   */\n  dup2\n    /* \"#utility.yul\":1403:1424   */\n  tag_19\n  jump\t// in\ntag_39:\n    /* \"#utility.yul\":1396:1401   */\n  dup2\n    /* \"#utility.yul\":1393:1425   */\n  eq\n    /* \"#utility.yul\":1383:1443   */\n  tag_40\n  jumpi\n    /* \"#utility.yul\":1439:1440   */\n  0x00\n    /* \"#utility.yul\":1436:1437   */\n  dup1\n    /* \"#utility.yul\":1429:1441   */\n  revert\n    /* \"#utility.yul\":1383:1443   */\ntag_40:\n    /* \"#utility.yul\":1333:1449   */\n  pop\n  jump\t// out\n    /* \"#utility.yul\":1455:1592   */\ntag_21:\n    /* \"#utility.yul\":1509:1514   */\n  0x00\n    /* \"#utility.yul\":1540:1546   */\n  dup2\n    /* \"#utility.yul\":1534:1547   */\n  mload\n    /* \"#utility.yul\":1525:1547   */\n  swap1\n  pop\n    /* \"#utility.yul\":1556:1586   */\n  tag_42\n    /* \"#utility.yul\":1580:1585   */\n  dup2\n    /* \"#utility.yul\":1556:1586   */\n  tag_20\n  jump\t// in\ntag_42:\n    /* \"#utility.yul\":1455:1592   */\n  swap3\n  swap2\n  pop\n  pop\n  jump\t// out\n    /* \"#utility.yul\":1598:1943   */\ntag_9:\n    /* \"#utility.yul\":1665:1671   */\n  0x00\n    /* \"#utility.yul\":1714:1716   */\n  0x20\n    /* \"#utility.yul\":1702:1711   */\n  dup3\n    /* \"#utility.yul\":1693:1700   */\n  dup5\n    /* \"#utility.yul\":1689:1712   */\n  sub\n    /* \"#utility.yul\":1685:1717   */\n  slt\n    /* \"#utility.yul\":1682:1801   */\n  iszero\n  tag_44\n  jumpi\n    /* \"#utility.yul\":1720:1799   */\n  tag_45\n  tag_17\n  jump\t// in\ntag_45:\n    /* \"#utility.yul\":1682:1801   */\ntag_44:\n    /* \"#utility.yul\":1840:1841   */\n  0x00\n    /* \"#utility.yul\":1865:1926   */\n  tag_46\n    /* \"#utility.yul\":1918:1925   */\n  dup5\n    /* \"#utility.yul\":1909:1915   */\n  dup3\n    /* \"#utility.yul\":1898:1907   */\n  dup6\n    /* \"#utility.yul\":1894:1916   */\n  add\n    /* \"#utility.yul\":1865:1926   */\n  tag_21\n  jump\t// in\ntag_46:\n    /* \"#utility.yul\":1855:1926   */\n  swap2\n  pop\n    /* \"#utility.yul\":1811:1936   */\n  pop\n    /* \"#utility.yul\":1598:1943   */\n  swap3\n  swap2\n  pop\n  pop\n  jump\t// out\n    /* \"CCIPTokenSenderFujiSepolia.sol\":461:4176  contract CCIPTokenSenderFujiSepolia {... */\ntag_10:\n  dataSize(sub_0)\n  dup1\n  dataOffset(sub_0)\n  0x00\n  codecopy\n  0x00\n  return\nstop\n\nsub_0: assembly {\n        /* \"CCIPTokenSenderFujiSepolia.sol\":461:4176  contract CCIPTokenSenderFujiSepolia {... */\n      mstore(0x40, 0x80)\n      callvalue\n      dup1\n      iszero\n      tag_1\n      jumpi\n      0x00\n      dup1\n      revert\n    tag_1:\n      pop\n      jumpi(tag_2, lt(calldatasize, 0x04))\n      shr(0xe0, calldataload(0x00))\n      dup1\n      0x3aeac4e1\n      eq\n      tag_3\n      jumpi\n      dup1\n      0x6392a51f\n      eq\n      tag_4\n      jumpi\n      dup1\n      0x8da5cb5b\n      eq\n      tag_5\n      jumpi\n      dup1\n      0x9ea604e1\n      eq\n      tag_6\n      jumpi\n    tag_2:\n      0x00\n      dup1\n      revert\n        /* \"CCIPTokenSenderFujiSepolia.sol\":3877:4174  function withdrawToken(... */\n    tag_3:\n      tag_7\n      0x04\n      dup1\n      calldatasize\n      sub\n      dup2\n      add\n      swap1\n      tag_8\n      swap2\n      swap1\n      tag_9\n      jump\t// in\n    tag_8:\n      tag_10\n      jump\t// in\n    tag_7:\n      stop\n        /* \"CCIPTokenSenderFujiSepolia.sol\":3561:3788  function balancesOf(address account) public view returns (uint256 linkBalance, uint256 bnmTokenBalance) {... */\n    tag_4:\n      tag_11\n      0x04\n      dup1\n      calldatasize\n      sub\n      dup2\n      add\n      swap1\n      tag_12\n      swap2\n      swap1\n      tag_13\n      jump\t// in\n    tag_12:\n      tag_14\n      jump\t// in\n    tag_11:\n      mload(0x40)\n      tag_15\n      swap3\n      swap2\n      swap1\n      tag_16\n      jump\t// in\n    tag_15:\n      mload(0x40)\n      dup1\n      swap2\n      sub\n      swap1\n      return\n        /* \"CCIPTokenSenderFujiSepolia.sol\":563:583  address public owner */\n    tag_5:\n      tag_17\n      tag_18\n      jump\t// in\n    tag_17:\n      mload(0x40)\n      tag_19\n      swap2\n      swap1\n      tag_20\n      jump\t// in\n    tag_19:\n      mload(0x40)\n      dup1\n      swap2\n      sub\n      swap1\n      return\n        /* \"CCIPTokenSenderFujiSepolia.sol\":1986:3551  function transferToSepolia(... */\n    tag_6:\n      tag_21\n      0x04\n      dup1\n      calldatasize\n      sub\n      dup2\n      add\n      swap1\n      tag_22\n      swap2\n      swap1\n      tag_23\n      jump\t// in\n    tag_22:\n      tag_24\n      jump\t// in\n    tag_21:\n      mload(0x40)\n      tag_25\n      swap2\n      swap1\n      tag_26\n      jump\t// in\n    tag_25:\n      mload(0x40)\n      dup1\n      swap2\n      sub\n      swap1\n      return\n        /* \"CCIPTokenSenderFujiSepolia.sol\":3877:4174  function withdrawToken(... */\n    tag_10:\n        /* \"CCIPTokenSenderFujiSepolia.sol\":3847:3852  owner */\n      0x02\n      0x00\n      swap1\n      sload\n      swap1\n      0x0100\n      exp\n      swap1\n      div\n      0xffffffffffffffffffffffffffffffffffffffff\n      and\n        /* \"CCIPTokenSenderFujiSepolia.sol\":3833:3852  msg.sender == owner */\n      0xffffffffffffffffffffffffffffffffffffffff\n      and\n        /* \"CCIPTokenSenderFujiSepolia.sol\":3833:3843  msg.sender */\n      caller\n        /* \"CCIPTokenSenderFujiSepolia.sol\":3833:3852  msg.sender == owner */\n      0xffffffffffffffffffffffffffffffffffffffff\n      and\n      eq\n        /* \"CCIPTokenSenderFujiSepolia.sol\":3825:3853  require(msg.sender == owner) */\n      tag_28\n      jumpi\n      0x00\n      dup1\n      revert\n    tag_28:\n        /* \"CCIPTokenSenderFujiSepolia.sol\":3987:4001  uint256 amount */\n      0x00\n        /* \"CCIPTokenSenderFujiSepolia.sol\":4011:4017  _token */\n      dup2\n        /* \"CCIPTokenSenderFujiSepolia.sol\":4004:4028  IERC20(_token).balanceOf */\n      0xffffffffffffffffffffffffffffffffffffffff\n      and\n      0x70a08231\n        /* \"CCIPTokenSenderFujiSepolia.sol\":4037:4041  this */\n      address\n        /* \"CCIPTokenSenderFujiSepolia.sol\":4004:4043  IERC20(_token).balanceOf(address(this)) */\n      mload(0x40)\n      dup3\n      0xffffffff\n      and\n      0xe0\n      shl\n      dup2\n      mstore\n      0x04\n      add\n      tag_30\n      swap2\n      swap1\n      tag_20\n      jump\t// in\n    tag_30:\n      0x20\n      mload(0x40)\n      dup1\n      dup4\n      sub\n      dup2\n      dup7\n      gas\n      staticcall\n      iszero\n      dup1\n      iszero\n      tag_32\n      jumpi\n      returndatasize\n      0x00\n      dup1\n      returndatacopy\n      revert(0x00, returndatasize)\n    tag_32:\n      pop\n      pop\n      pop\n      pop\n      mload(0x40)\n      returndatasize\n      not(0x1f)\n      0x1f\n      dup3\n      add\n      and\n      dup3\n      add\n      dup1\n      0x40\n      mstore\n      pop\n      dup2\n      add\n      swap1\n      tag_33\n      swap2\n      swap1\n      tag_34\n      jump\t// in\n    tag_33:\n        /* \"CCIPTokenSenderFujiSepolia.sol\":3987:4043  uint256 amount = IERC20(_token).balanceOf(address(this)) */\n      swap1\n      pop\n        /* \"CCIPTokenSenderFujiSepolia.sol\":4075:4076  0 */\n      0x00\n        /* \"CCIPTokenSenderFujiSepolia.sol\":4065:4071  amount */\n      dup2\n        /* \"CCIPTokenSenderFujiSepolia.sol\":4065:4076  amount == 0 */\n      sub\n        /* \"CCIPTokenSenderFujiSepolia.sol\":4061:4104  if (amount == 0) revert NothingToWithdraw() */\n      tag_35\n      jumpi\n        /* \"CCIPTokenSenderFujiSepolia.sol\":4085:4104  NothingToWithdraw() */\n      mload(0x40)\n      0xd0d04f6000000000000000000000000000000000000000000000000000000000\n      dup2\n      mstore\n      0x04\n      add\n      mload(0x40)\n      dup1\n      swap2\n      sub\n      swap1\n      revert\n        /* \"CCIPTokenSenderFujiSepolia.sol\":4061:4104  if (amount == 0) revert NothingToWithdraw() */\n    tag_35:\n        /* \"CCIPTokenSenderFujiSepolia.sol\":4129:4135  _token */\n      dup2\n        /* \"CCIPTokenSenderFujiSepolia.sol\":4122:4145  IERC20(_token).transfer */\n      0xffffffffffffffffffffffffffffffffffffffff\n      and\n      0xa9059cbb\n        /* \"CCIPTokenSenderFujiSepolia.sol\":4146:4158  _beneficiary */\n      dup5\n        /* \"CCIPTokenSenderFujiSepolia.sol\":4160:4166  amount */\n      dup4\n        /* \"CCIPTokenSenderFujiSepolia.sol\":4122:4167  IERC20(_token).transfer(_beneficiary, amount) */\n      mload(0x40)\n      dup4\n      0xffffffff\n      and\n      0xe0\n      shl\n      dup2\n      mstore\n      0x04\n      add\n      tag_36\n      swap3\n      swap2\n      swap1\n      tag_37\n      jump\t// in\n    tag_36:\n      0x20\n      mload(0x40)\n      dup1\n      dup4\n      sub\n      dup2\n      0x00\n      dup8\n      gas\n      call\n      iszero\n      dup1\n      iszero\n      tag_39\n      jumpi\n      returndatasize\n      0x00\n      dup1\n      returndatacopy\n      revert(0x00, returndatasize)\n    tag_39:\n      pop\n      pop\n      pop\n      pop\n      mload(0x40)\n      returndatasize\n      not(0x1f)\n      0x1f\n      dup3\n      add\n      and\n      dup3\n      add\n      dup1\n      0x40\n      mstore\n      pop\n      dup2\n      add\n      swap1\n      tag_40\n      swap2\n      swap1\n      tag_41\n      jump\t// in\n    tag_40:\n      pop\n        /* \"CCIPTokenSenderFujiSepolia.sol\":3977:4174  {... */\n      pop\n        /* \"CCIPTokenSenderFujiSepolia.sol\":3877:4174  function withdrawToken(... */\n      pop\n      pop\n      jump\t// out\n        /* \"CCIPTokenSenderFujiSepolia.sol\":3561:3788  function balancesOf(address account) public view returns (uint256 linkBalance, uint256 bnmTokenBalance) {... */\n    tag_14:\n        /* \"CCIPTokenSenderFujiSepolia.sol\":3619:3638  uint256 linkBalance */\n      0x00\n        /* \"CCIPTokenSenderFujiSepolia.sol\":3640:3663  uint256 bnmTokenBalance */\n      dup1\n        /* \"CCIPTokenSenderFujiSepolia.sol\":3690:3699  linkToken */\n      0x01\n      0x00\n      swap1\n      sload\n      swap1\n      0x0100\n      exp\n      swap1\n      div\n      0xffffffffffffffffffffffffffffffffffffffff\n      and\n        /* \"CCIPTokenSenderFujiSepolia.sol\":3690:3709  linkToken.balanceOf */\n      0xffffffffffffffffffffffffffffffffffffffff\n      and\n      0x70a08231\n        /* \"CCIPTokenSenderFujiSepolia.sol\":3710:3717  account */\n      dup5\n        /* \"CCIPTokenSenderFujiSepolia.sol\":3690:3718  linkToken.balanceOf(account) */\n      mload(0x40)\n      dup3\n      0xffffffff\n      and\n      0xe0\n      shl\n      dup2\n      mstore\n      0x04\n      add\n      tag_43\n      swap2\n      swap1\n      tag_20\n      jump\t// in\n    tag_43:\n      0x20\n      mload(0x40)\n      dup1\n      dup4\n      sub\n      dup2\n      dup7\n      gas\n      staticcall\n      iszero\n      dup1\n      iszero\n      tag_45\n      jumpi\n      returndatasize\n      0x00\n      dup1\n      returndatacopy\n      revert(0x00, returndatasize)\n    tag_45:\n      pop\n      pop\n      pop\n      pop\n      mload(0x40)\n      returndatasize\n      not(0x1f)\n      0x1f\n      dup3\n      add\n      and\n      dup3\n      add\n      dup1\n      0x40\n      mstore\n      pop\n      dup2\n      add\n      swap1\n      tag_46\n      swap2\n      swap1\n      tag_34\n      jump\t// in\n    tag_46:\n        /* \"CCIPTokenSenderFujiSepolia.sol\":3675:3718  linkBalance =  linkToken.balanceOf(account) */\n      swap2\n      pop\n        /* \"CCIPTokenSenderFujiSepolia.sol\":3753:3761  bnmToken */\n      0x05\n      0x00\n      swap1\n      sload\n      swap1\n      0x0100\n      exp\n      swap1\n      div\n      0xffffffffffffffffffffffffffffffffffffffff\n      and\n        /* \"CCIPTokenSenderFujiSepolia.sol\":3746:3772  IERC20(bnmToken).balanceOf */\n      0xffffffffffffffffffffffffffffffffffffffff\n      and\n      0x70a08231\n        /* \"CCIPTokenSenderFujiSepolia.sol\":3773:3780  account */\n      dup5\n        /* \"CCIPTokenSenderFujiSepolia.sol\":3746:3781  IERC20(bnmToken).balanceOf(account) */\n      mload(0x40)\n      dup3\n      0xffffffff\n      and\n      0xe0\n      shl\n      dup2\n      mstore\n      0x04\n      add\n      tag_47\n      swap2\n      swap1\n      tag_20\n      jump\t// in\n    tag_47:\n      0x20\n      mload(0x40)\n      dup1\n      dup4\n      sub\n      dup2\n      dup7\n      gas\n      staticcall\n      iszero\n      dup1\n      iszero\n      tag_49\n      jumpi\n      returndatasize\n      0x00\n      dup1\n      returndatacopy\n      revert(0x00, returndatasize)\n    tag_49:\n      pop\n      pop\n      pop\n      pop\n      mload(0x40)\n      returndatasize\n      not(0x1f)\n      0x1f\n      dup3\n      add\n      and\n      dup3\n      add\n      dup1\n      0x40\n      mstore\n      pop\n      dup2\n      add\n      swap1\n      tag_50\n      swap2\n      swap1\n      tag_34\n      jump\t// in\n    tag_50:\n        /* \"CCIPTokenSenderFujiSepolia.sol\":3728:3781  bnmTokenBalance = IERC20(bnmToken).balanceOf(account) */\n      swap1\n      pop\n        /* \"CCIPTokenSenderFujiSepolia.sol\":3561:3788  function balancesOf(address account) public view returns (uint256 linkBalance, uint256 bnmTokenBalance) {... */\n      swap2\n      pop\n      swap2\n      jump\t// out\n        /* \"CCIPTokenSenderFujiSepolia.sol\":563:583  address public owner */\n    tag_18:\n      0x02\n      0x00\n      swap1\n      sload\n      swap1\n      0x0100\n      exp\n      swap1\n      div\n      0xffffffffffffffffffffffffffffffffffffffff\n      and\n      dup2\n      jump\t// out\n        /* \"CCIPTokenSenderFujiSepolia.sol\":1986:3551  function transferToSepolia(... */\n    tag_24:\n        /* \"CCIPTokenSenderFujiSepolia.sol\":2105:2122  bytes32 messageId */\n      0x00\n        /* \"CCIPTokenSenderFujiSepolia.sol\":2138:2193  Client.EVMTokenAmount[]... */\n      dup1\n        /* \"CCIPTokenSenderFujiSepolia.sol\":2224:2225  1 */\n      0x01\n        /* \"CCIPTokenSenderFujiSepolia.sol\":2196:2226  new Client.EVMTokenAmount[](1) */\n      0xffffffffffffffff\n      dup2\n      gt\n      iszero\n      tag_52\n      jumpi\n      tag_53\n      tag_54\n      jump\t// in\n    tag_53:\n    tag_52:\n      mload(0x40)\n      swap1\n      dup1\n      dup3\n      mstore\n      dup1\n      0x20\n      mul\n      0x20\n      add\n      dup3\n      add\n      0x40\n      mstore\n      dup1\n      iszero\n      tag_55\n      jumpi\n      dup2\n      0x20\n      add\n    tag_56:\n      tag_57\n      tag_58\n      jump\t// in\n    tag_57:\n      dup2\n      mstore\n      0x20\n      add\n      swap1\n      0x01\n      swap1\n      sub\n      swap1\n      dup2\n      tag_56\n      jumpi\n      swap1\n      pop\n    tag_55:\n      pop\n        /* \"CCIPTokenSenderFujiSepolia.sol\":2138:2226  Client.EVMTokenAmount[]... */\n      swap1\n      pop\n        /* \"CCIPTokenSenderFujiSepolia.sol\":2236:2276  Client.EVMTokenAmount memory tokenAmount */\n      0x00\n        /* \"CCIPTokenSenderFujiSepolia.sol\":2279:2370  Client.EVMTokenAmount({... */\n      mload(0x40)\n      dup1\n      0x40\n      add\n      0x40\n      mstore\n      dup1\n        /* \"CCIPTokenSenderFujiSepolia.sol\":2322:2330  bnmToken */\n      0x05\n      0x00\n      swap1\n      sload\n      swap1\n      0x0100\n      exp\n      swap1\n      div\n      0xffffffffffffffffffffffffffffffffffffffff\n      and\n        /* \"CCIPTokenSenderFujiSepolia.sol\":2279:2370  Client.EVMTokenAmount({... */\n      0xffffffffffffffffffffffffffffffffffffffff\n      and\n      dup2\n      mstore\n      0x20\n      add\n        /* \"CCIPTokenSenderFujiSepolia.sol\":2352:2359  _amount */\n      dup6\n        /* \"CCIPTokenSenderFujiSepolia.sol\":2279:2370  Client.EVMTokenAmount({... */\n      dup2\n      mstore\n      pop\n        /* \"CCIPTokenSenderFujiSepolia.sol\":2236:2370  Client.EVMTokenAmount memory tokenAmount = Client.EVMTokenAmount({... */\n      swap1\n      pop\n        /* \"CCIPTokenSenderFujiSepolia.sol\":2398:2409  tokenAmount */\n      dup1\n        /* \"CCIPTokenSenderFujiSepolia.sol\":2380:2392  tokenAmounts */\n      dup3\n        /* \"CCIPTokenSenderFujiSepolia.sol\":2393:2394  0 */\n      0x00\n        /* \"CCIPTokenSenderFujiSepolia.sol\":2380:2395  tokenAmounts[0] */\n      dup2\n      mload\n      dup2\n      lt\n      tag_59\n      jumpi\n      tag_60\n      tag_61\n      jump\t// in\n    tag_60:\n    tag_59:\n      0x20\n      mul\n      0x20\n      add\n      add\n        /* \"CCIPTokenSenderFujiSepolia.sol\":2380:2409  tokenAmounts[0] = tokenAmount */\n      dup2\n      swap1\n      mstore\n      pop\n        /* \"CCIPTokenSenderFujiSepolia.sol\":2461:2497  Client.EVM2AnyMessage memory message */\n      0x00\n        /* \"CCIPTokenSenderFujiSepolia.sol\":2500:2794  Client.EVM2AnyMessage({... */\n      mload(0x40)\n      dup1\n      0xa0\n      add\n      0x40\n      mstore\n      dup1\n        /* \"CCIPTokenSenderFujiSepolia.sol\":2557:2566  _receiver */\n      dup8\n        /* \"CCIPTokenSenderFujiSepolia.sol\":2546:2567  abi.encode(_receiver) */\n      add(0x20, mload(0x40))\n      tag_62\n      swap2\n      swap1\n      tag_20\n      jump\t// in\n    tag_62:\n      mload(0x40)\n      0x20\n      dup2\n      dup4\n      sub\n      sub\n      dup2\n      mstore\n      swap1\n      0x40\n      mstore\n        /* \"CCIPTokenSenderFujiSepolia.sol\":2500:2794  Client.EVM2AnyMessage({... */\n      dup2\n      mstore\n      0x20\n      add\n      mload(0x40)\n      dup1\n      0x20\n      add\n      0x40\n      mstore\n      dup1\n      0x00\n      dup2\n      mstore\n      pop\n      dup2\n      mstore\n      0x20\n      add\n        /* \"CCIPTokenSenderFujiSepolia.sol\":2617:2629  tokenAmounts */\n      dup5\n        /* \"CCIPTokenSenderFujiSepolia.sol\":2500:2794  Client.EVM2AnyMessage({... */\n      dup2\n      mstore\n      0x20\n      add\n        /* \"CCIPTokenSenderFujiSepolia.sol\":2773:2782  linkToken */\n      0x01\n      0x00\n      swap1\n      sload\n      swap1\n      0x0100\n      exp\n      swap1\n      div\n      0xffffffffffffffffffffffffffffffffffffffff\n      and\n        /* \"CCIPTokenSenderFujiSepolia.sol\":2500:2794  Client.EVM2AnyMessage({... */\n      0xffffffffffffffffffffffffffffffffffffffff\n      and\n      dup2\n      mstore\n      0x20\n      add\n        /* \"CCIPTokenSenderFujiSepolia.sol\":2654:2741  Client._argsToBytes(... */\n      tag_63\n        /* \"CCIPTokenSenderFujiSepolia.sol\":2691:2727  Client.EVMExtraArgsV1({gasLimit: 0}) */\n      mload(0x40)\n      dup1\n      0x20\n      add\n      0x40\n      mstore\n      dup1\n        /* \"CCIPTokenSenderFujiSepolia.sol\":2724:2725  0 */\n      0x00\n        /* \"CCIPTokenSenderFujiSepolia.sol\":2691:2727  Client.EVMExtraArgsV1({gasLimit: 0}) */\n      dup2\n      mstore\n      pop\n        /* \"CCIPTokenSenderFujiSepolia.sol\":2654:2673  Client._argsToBytes */\n      tag_64\n        /* \"CCIPTokenSenderFujiSepolia.sol\":2654:2741  Client._argsToBytes(... */\n      jump\t// in\n    tag_63:\n        /* \"CCIPTokenSenderFujiSepolia.sol\":2500:2794  Client.EVM2AnyMessage({... */\n      dup2\n      mstore\n      pop\n        /* \"CCIPTokenSenderFujiSepolia.sol\":2461:2794  Client.EVM2AnyMessage memory message = Client.EVM2AnyMessage({... */\n      swap1\n      pop\n        /* \"CCIPTokenSenderFujiSepolia.sol\":2844:2856  uint256 fees */\n      0x00\n        /* \"CCIPTokenSenderFujiSepolia.sol\":2859:2865  router */\n      dup1\n      0x00\n      swap1\n      sload\n      swap1\n      0x0100\n      exp\n      swap1\n      div\n      0xffffffffffffffffffffffffffffffffffffffff\n      and\n        /* \"CCIPTokenSenderFujiSepolia.sol\":2859:2872  router.getFee */\n      0xffffffffffffffffffffffffffffffffffffffff\n      and\n      0x20487ded\n        /* \"CCIPTokenSenderFujiSepolia.sol\":2873:2897  destinationChainSelector */\n      0x05\n      0x14\n      swap1\n      sload\n      swap1\n      0x0100\n      exp\n      swap1\n      div\n      0xffffffffffffffff\n      and\n        /* \"CCIPTokenSenderFujiSepolia.sol\":2899:2906  message */\n      dup5\n        /* \"CCIPTokenSenderFujiSepolia.sol\":2859:2907  router.getFee(destinationChainSelector, message) */\n      mload(0x40)\n      dup4\n      0xffffffff\n      and\n      0xe0\n      shl\n      dup2\n      mstore\n      0x04\n      add\n      tag_65\n      swap3\n      swap2\n      swap1\n      tag_66\n      jump\t// in\n    tag_65:\n      0x20\n      mload(0x40)\n      dup1\n      dup4\n      sub\n      dup2\n      dup7\n      gas\n      staticcall\n      iszero\n      dup1\n      iszero\n      tag_68\n      jumpi\n      returndatasize\n      0x00\n      dup1\n      returndatacopy\n      revert(0x00, returndatasize)\n    tag_68:\n      pop\n      pop\n      pop\n      pop\n      mload(0x40)\n      returndatasize\n      not(0x1f)\n      0x1f\n      dup3\n      add\n      and\n      dup3\n      add\n      dup1\n      0x40\n      mstore\n      pop\n      dup2\n      add\n      swap1\n      tag_69\n      swap2\n      swap1\n      tag_34\n      jump\t// in\n    tag_69:\n        /* \"CCIPTokenSenderFujiSepolia.sol\":2844:2907  uint256 fees = router.getFee(destinationChainSelector, message) */\n      swap1\n      pop\n        /* \"CCIPTokenSenderFujiSepolia.sol\":2929:2938  linkToken */\n      0x01\n      0x00\n      swap1\n      sload\n      swap1\n      0x0100\n      exp\n      swap1\n      div\n      0xffffffffffffffffffffffffffffffffffffffff\n      and\n        /* \"CCIPTokenSenderFujiSepolia.sol\":2929:2948  linkToken.balanceOf */\n      0xffffffffffffffffffffffffffffffffffffffff\n      and\n      0x70a08231\n        /* \"CCIPTokenSenderFujiSepolia.sol\":2957:2961  this */\n      address\n        /* \"CCIPTokenSenderFujiSepolia.sol\":2929:2963  linkToken.balanceOf(address(this)) */\n      mload(0x40)\n      dup3\n      0xffffffff\n      and\n      0xe0\n      shl\n      dup2\n      mstore\n      0x04\n      add\n      tag_70\n      swap2\n      swap1\n      tag_20\n      jump\t// in\n    tag_70:\n      0x20\n      mload(0x40)\n      dup1\n      dup4\n      sub\n      dup2\n      dup7\n      gas\n      staticcall\n      iszero\n      dup1\n      iszero\n      tag_72\n      jumpi\n      returndatasize\n      0x00\n      dup1\n      returndatacopy\n      revert(0x00, returndatasize)\n    tag_72:\n      pop\n      pop\n      pop\n      pop\n      mload(0x40)\n      returndatasize\n      not(0x1f)\n      0x1f\n      dup3\n      add\n      and\n      dup3\n      add\n      dup1\n      0x40\n      mstore\n      pop\n      dup2\n      add\n      swap1\n      tag_73\n      swap2\n      swap1\n      tag_34\n      jump\t// in\n    tag_73:\n        /* \"CCIPTokenSenderFujiSepolia.sol\":2922:2926  fees */\n      dup2\n        /* \"CCIPTokenSenderFujiSepolia.sol\":2922:2963  fees > linkToken.balanceOf(address(this)) */\n      gt\n        /* \"CCIPTokenSenderFujiSepolia.sol\":2918:3042  if (fees > linkToken.balanceOf(address(this)))... */\n      iszero\n      tag_74\n      jumpi\n        /* \"CCIPTokenSenderFujiSepolia.sol\":3001:3010  linkToken */\n      0x01\n      0x00\n      swap1\n      sload\n      swap1\n      0x0100\n      exp\n      swap1\n      div\n      0xffffffffffffffffffffffffffffffffffffffff\n      and\n        /* \"CCIPTokenSenderFujiSepolia.sol\":3001:3020  linkToken.balanceOf */\n      0xffffffffffffffffffffffffffffffffffffffff\n      and\n      0x70a08231\n        /* \"CCIPTokenSenderFujiSepolia.sol\":3029:3033  this */\n      address\n        /* \"CCIPTokenSenderFujiSepolia.sol\":3001:3035  linkToken.balanceOf(address(this)) */\n      mload(0x40)\n      dup3\n      0xffffffff\n      and\n      0xe0\n      shl\n      dup2\n      mstore\n      0x04\n      add\n      tag_75\n      swap2\n      swap1\n      tag_20\n      jump\t// in\n    tag_75:\n      0x20\n      mload(0x40)\n      dup1\n      dup4\n      sub\n      dup2\n      dup7\n      gas\n      staticcall\n      iszero\n      dup1\n      iszero\n      tag_77\n      jumpi\n      returndatasize\n      0x00\n      dup1\n      returndatacopy\n      revert(0x00, returndatasize)\n    tag_77:\n      pop\n      pop\n      pop\n      pop\n      mload(0x40)\n      returndatasize\n      not(0x1f)\n      0x1f\n      dup3\n      add\n      and\n      dup3\n      add\n      dup1\n      0x40\n      mstore\n      pop\n      dup2\n      add\n      swap1\n      tag_78\n      swap2\n      swap1\n      tag_34\n      jump\t// in\n    tag_78:\n        /* \"CCIPTokenSenderFujiSepolia.sol\":3037:3041  fees */\n      dup2\n        /* \"CCIPTokenSenderFujiSepolia.sol\":2984:3042  NotEnoughBalance(linkToken.balanceOf(address(this)), fees) */\n      mload(0x40)\n      0x8f0f420600000000000000000000000000000000000000000000000000000000\n      dup2\n      mstore\n      0x04\n      add\n      tag_79\n      swap3\n      swap2\n      swap1\n      tag_16\n      jump\t// in\n    tag_79:\n      mload(0x40)\n      dup1\n      swap2\n      sub\n      swap1\n      revert\n        /* \"CCIPTokenSenderFujiSepolia.sol\":2918:3042  if (fees > linkToken.balanceOf(address(this)))... */\n    tag_74:\n        /* \"CCIPTokenSenderFujiSepolia.sol\":3053:3062  linkToken */\n      0x01\n      0x00\n      swap1\n      sload\n      swap1\n      0x0100\n      exp\n      swap1\n      div\n      0xffffffffffffffffffffffffffffffffffffffff\n      and\n        /* \"CCIPTokenSenderFujiSepolia.sol\":3053:3070  linkToken.approve */\n      0xffffffffffffffffffffffffffffffffffffffff\n      and\n      0x095ea7b3\n        /* \"CCIPTokenSenderFujiSepolia.sol\":3079:3085  router */\n      0x00\n      dup1\n      sload\n      swap1\n      0x0100\n      exp\n      swap1\n      div\n      0xffffffffffffffffffffffffffffffffffffffff\n      and\n        /* \"CCIPTokenSenderFujiSepolia.sol\":3088:3092  fees */\n      dup4\n        /* \"CCIPTokenSenderFujiSepolia.sol\":3053:3093  linkToken.approve(address(router), fees) */\n      mload(0x40)\n      dup4\n      0xffffffff\n      and\n      0xe0\n      shl\n      dup2\n      mstore\n      0x04\n      add\n      tag_80\n      swap3\n      swap2\n      swap1\n      tag_37\n      jump\t// in\n    tag_80:\n      0x20\n      mload(0x40)\n      dup1\n      dup4\n      sub\n      dup2\n      0x00\n      dup8\n      gas\n      call\n      iszero\n      dup1\n      iszero\n      tag_82\n      jumpi\n      returndatasize\n      0x00\n      dup1\n      returndatacopy\n      revert(0x00, returndatasize)\n    tag_82:\n      pop\n      pop\n      pop\n      pop\n      mload(0x40)\n      returndatasize\n      not(0x1f)\n      0x1f\n      dup3\n      add\n      and\n      dup3\n      add\n      dup1\n      0x40\n      mstore\n      pop\n      dup2\n      add\n      swap1\n      tag_83\n      swap2\n      swap1\n      tag_41\n      jump\t// in\n    tag_83:\n      pop\n        /* \"CCIPTokenSenderFujiSepolia.sol\":3177:3185  bnmToken */\n      0x05\n      0x00\n      swap1\n      sload\n      swap1\n      0x0100\n      exp\n      swap1\n      div\n      0xffffffffffffffffffffffffffffffffffffffff\n      and\n        /* \"CCIPTokenSenderFujiSepolia.sol\":3170:3194  IERC20(bnmToken).approve */\n      0xffffffffffffffffffffffffffffffffffffffff\n      and\n      0x095ea7b3\n        /* \"CCIPTokenSenderFujiSepolia.sol\":3203:3209  router */\n      0x00\n      dup1\n      sload\n      swap1\n      0x0100\n      exp\n      swap1\n      div\n      0xffffffffffffffffffffffffffffffffffffffff\n      and\n        /* \"CCIPTokenSenderFujiSepolia.sol\":3212:3219  _amount */\n      dup9\n        /* \"CCIPTokenSenderFujiSepolia.sol\":3170:3220  IERC20(bnmToken).approve(address(router), _amount) */\n      mload(0x40)\n      dup4\n      0xffffffff\n      and\n      0xe0\n      shl\n      dup2\n      mstore\n      0x04\n      add\n      tag_84\n      swap3\n      swap2\n      swap1\n      tag_37\n      jump\t// in\n    tag_84:\n      0x20\n      mload(0x40)\n      dup1\n      dup4\n      sub\n      dup2\n      0x00\n      dup8\n      gas\n      call\n      iszero\n      dup1\n      iszero\n      tag_86\n      jumpi\n      returndatasize\n      0x00\n      dup1\n      returndatacopy\n      revert(0x00, returndatasize)\n    tag_86:\n      pop\n      pop\n      pop\n      pop\n      mload(0x40)\n      returndatasize\n      not(0x1f)\n      0x1f\n      dup3\n      add\n      and\n      dup3\n      add\n      dup1\n      0x40\n      mstore\n      pop\n      dup2\n      add\n      swap1\n      tag_87\n      swap2\n      swap1\n      tag_41\n      jump\t// in\n    tag_87:\n      pop\n        /* \"CCIPTokenSenderFujiSepolia.sol\":3279:3285  router */\n      0x00\n      dup1\n      sload\n      swap1\n      0x0100\n      exp\n      swap1\n      div\n      0xffffffffffffffffffffffffffffffffffffffff\n      and\n        /* \"CCIPTokenSenderFujiSepolia.sol\":3279:3294  router.ccipSend */\n      0xffffffffffffffffffffffffffffffffffffffff\n      and\n      0x96f4e9f9\n        /* \"CCIPTokenSenderFujiSepolia.sol\":3295:3319  destinationChainSelector */\n      0x05\n      0x14\n      swap1\n      sload\n      swap1\n      0x0100\n      exp\n      swap1\n      div\n      0xffffffffffffffff\n      and\n        /* \"CCIPTokenSenderFujiSepolia.sol\":3321:3328  message */\n      dup5\n        /* \"CCIPTokenSenderFujiSepolia.sol\":3279:3329  router.ccipSend(destinationChainSelector, message) */\n      mload(0x40)\n      dup4\n      0xffffffff\n      and\n      0xe0\n      shl\n      dup2\n      mstore\n      0x04\n      add\n      tag_88\n      swap3\n      swap2\n      swap1\n      tag_66\n      jump\t// in\n    tag_88:\n      0x20\n      mload(0x40)\n      dup1\n      dup4\n      sub\n      dup2\n      0x00\n      dup8\n      gas\n      call\n      iszero\n      dup1\n      iszero\n      tag_90\n      jumpi\n      returndatasize\n      0x00\n      dup1\n      returndatacopy\n      revert(0x00, returndatasize)\n    tag_90:\n      pop\n      pop\n      pop\n      pop\n      mload(0x40)\n      returndatasize\n      not(0x1f)\n      0x1f\n      dup3\n      add\n      and\n      dup3\n      add\n      dup1\n      0x40\n      mstore\n      pop\n      dup2\n      add\n      swap1\n      tag_91\n      swap2\n      swap1\n      tag_92\n      jump\t// in\n    tag_91:\n        /* \"CCIPTokenSenderFujiSepolia.sol\":3267:3329  messageId = router.ccipSend(destinationChainSelector, message) */\n      swap5\n      pop\n        /* \"CCIPTokenSenderFujiSepolia.sol\":3406:3430  destinationChainSelector */\n      0x05\n      0x14\n      swap1\n      sload\n      swap1\n      0x0100\n      exp\n      swap1\n      div\n      0xffffffffffffffff\n      and\n        /* \"CCIPTokenSenderFujiSepolia.sol\":3352:3542  TokensTransferred(... */\n      0xffffffffffffffff\n      and\n        /* \"CCIPTokenSenderFujiSepolia.sol\":3383:3392  messageId */\n      dup6\n        /* \"CCIPTokenSenderFujiSepolia.sol\":3352:3542  TokensTransferred(... */\n      0xc15fb748c32ba4eb29c1c311e78533f93b4425eab49ea87c6fe4279ecadca043\n        /* \"CCIPTokenSenderFujiSepolia.sol\":3444:3453  _receiver */\n      dup10\n        /* \"CCIPTokenSenderFujiSepolia.sol\":3467:3475  bnmToken */\n      0x05\n      0x00\n      swap1\n      sload\n      swap1\n      0x0100\n      exp\n      swap1\n      div\n      0xffffffffffffffffffffffffffffffffffffffff\n      and\n        /* \"CCIPTokenSenderFujiSepolia.sol\":3489:3496  _amount */\n      dup11\n        /* \"CCIPTokenSenderFujiSepolia.sol\":3510:3514  link */\n      0x03\n      0x00\n      swap1\n      sload\n      swap1\n      0x0100\n      exp\n      swap1\n      div\n      0xffffffffffffffffffffffffffffffffffffffff\n      and\n        /* \"CCIPTokenSenderFujiSepolia.sol\":3528:3532  fees */\n      dup8\n        /* \"CCIPTokenSenderFujiSepolia.sol\":3352:3542  TokensTransferred(... */\n      mload(0x40)\n      tag_93\n      swap6\n      swap5\n      swap4\n      swap3\n      swap2\n      swap1\n      tag_94\n      jump\t// in\n    tag_93:\n      mload(0x40)\n      dup1\n      swap2\n      sub\n      swap1\n      log3\n        /* \"CCIPTokenSenderFujiSepolia.sol\":2128:3551  {... */\n      pop\n      pop\n      pop\n      pop\n        /* \"CCIPTokenSenderFujiSepolia.sol\":1986:3551  function transferToSepolia(... */\n      swap3\n      swap2\n      pop\n      pop\n      jump\t// out\n        /* \"@chainlink/contracts-ccip/src/v0.8/ccip/libraries/Client.sol\":1285:1455  function _argsToBytes(EVMExtraArgsV1 memory extraArgs) internal pure returns (bytes memory bts) {... */\n    tag_64:\n        /* \"@chainlink/contracts-ccip/src/v0.8/ccip/libraries/Client.sol\":1363:1379  bytes memory bts */\n      0x60\n        /* \"@chainlink/contracts-ccip/src/v0.8/ccip/libraries/Client.sol\":1218:1228  0x97a657c9 */\n      0x97a657c9\n        /* \"@chainlink/contracts-ccip/src/v0.8/ccip/libraries/Client.sol\":1417:1438  EVM_EXTRA_ARGS_V1_TAG */\n      0xe0\n      shl\n        /* \"@chainlink/contracts-ccip/src/v0.8/ccip/libraries/Client.sol\":1440:1449  extraArgs */\n      dup3\n        /* \"@chainlink/contracts-ccip/src/v0.8/ccip/libraries/Client.sol\":1394:1450  abi.encodeWithSelector(EVM_EXTRA_ARGS_V1_TAG, extraArgs) */\n      add(0x24, mload(0x40))\n      tag_96\n      swap2\n      swap1\n      tag_97\n      jump\t// in\n    tag_96:\n      mload(0x40)\n      0x20\n      dup2\n      dup4\n      sub\n      sub\n      dup2\n      mstore\n      swap1\n      0x40\n      mstore\n      swap1\n      not(0xffffffffffffffffffffffffffffffffffffffffffffffffffffffff)\n      and\n      0x20\n      dup3\n      add\n      dup1\n      mload\n      0xffffffffffffffffffffffffffffffffffffffffffffffffffffffff\n      dup4\n      dup2\n      dup4\n      and\n      or\n      dup4\n      mstore\n      pop\n      pop\n      pop\n      pop\n        /* \"@chainlink/contracts-ccip/src/v0.8/ccip/libraries/Client.sol\":1387:1450  return abi.encodeWithSelector(EVM_EXTRA_ARGS_V1_TAG, extraArgs) */\n      swap1\n      pop\n        /* \"@chainlink/contracts-ccip/src/v0.8/ccip/libraries/Client.sol\":1285:1455  function _argsToBytes(EVMExtraArgsV1 memory extraArgs) internal pure returns (bytes memory bts) {... */\n      swap2\n      swap1\n      pop\n      jump\t// out\n    tag_58:\n      mload(0x40)\n      dup1\n      0x40\n      add\n      0x40\n      mstore\n      dup1\n      and(0xffffffffffffffffffffffffffffffffffffffff, 0x00)\n      dup2\n      mstore\n      0x20\n      add\n      0x00\n      dup2\n      mstore\n      pop\n      swap1\n      jump\t// out\n        /* \"#utility.yul\":88:205   */\n    tag_99:\n        /* \"#utility.yul\":197:198   */\n      0x00\n        /* \"#utility.yul\":194:195   */\n      dup1\n        /* \"#utility.yul\":187:199   */\n      revert\n        /* \"#utility.yul\":334:460   */\n    tag_101:\n        /* \"#utility.yul\":371:378   */\n      0x00\n        /* \"#utility.yul\":411:453   */\n      0xffffffffffffffffffffffffffffffffffffffff\n        /* \"#utility.yul\":404:409   */\n      dup3\n        /* \"#utility.yul\":400:454   */\n      and\n        /* \"#utility.yul\":389:454   */\n      swap1\n      pop\n        /* \"#utility.yul\":334:460   */\n      swap2\n      swap1\n      pop\n      jump\t// out\n        /* \"#utility.yul\":466:562   */\n    tag_102:\n        /* \"#utility.yul\":503:510   */\n      0x00\n        /* \"#utility.yul\":532:556   */\n      tag_142\n        /* \"#utility.yul\":550:555   */\n      dup3\n        /* \"#utility.yul\":532:556   */\n      tag_101\n      jump\t// in\n    tag_142:\n        /* \"#utility.yul\":521:556   */\n      swap1\n      pop\n        /* \"#utility.yul\":466:562   */\n      swap2\n      swap1\n      pop\n      jump\t// out\n        /* \"#utility.yul\":568:690   */\n    tag_103:\n        /* \"#utility.yul\":641:665   */\n      tag_144\n        /* \"#utility.yul\":659:664   */\n      dup2\n        /* \"#utility.yul\":641:665   */\n      tag_102\n      jump\t// in\n    tag_144:\n        /* \"#utility.yul\":634:639   */\n      dup2\n        /* \"#utility.yul\":631:666   */\n      eq\n        /* \"#utility.yul\":621:684   */\n      tag_145\n      jumpi\n        /* \"#utility.yul\":680:681   */\n      0x00\n        /* \"#utility.yul\":677:678   */\n      dup1\n        /* \"#utility.yul\":670:682   */\n      revert\n        /* \"#utility.yul\":621:684   */\n    tag_145:\n        /* \"#utility.yul\":568:690   */\n      pop\n      jump\t// out\n        /* \"#utility.yul\":696:835   */\n    tag_104:\n        /* \"#utility.yul\":742:747   */\n      0x00\n        /* \"#utility.yul\":780:786   */\n      dup2\n        /* \"#utility.yul\":767:787   */\n      calldataload\n        /* \"#utility.yul\":758:787   */\n      swap1\n      pop\n        /* \"#utility.yul\":796:829   */\n      tag_147\n        /* \"#utility.yul\":823:828   */\n      dup2\n        /* \"#utility.yul\":796:829   */\n      tag_103\n      jump\t// in\n    tag_147:\n        /* \"#utility.yul\":696:835   */\n      swap3\n      swap2\n      pop\n      pop\n      jump\t// out\n        /* \"#utility.yul\":841:1315   */\n    tag_9:\n        /* \"#utility.yul\":909:915   */\n      0x00\n        /* \"#utility.yul\":917:923   */\n      dup1\n        /* \"#utility.yul\":966:968   */\n      0x40\n        /* \"#utility.yul\":954:963   */\n      dup4\n        /* \"#utility.yul\":945:952   */\n      dup6\n        /* \"#utility.yul\":941:964   */\n      sub\n        /* \"#utility.yul\":937:969   */\n      slt\n        /* \"#utility.yul\":934:1053   */\n      iszero\n      tag_149\n      jumpi\n        /* \"#utility.yul\":972:1051   */\n      tag_150\n      tag_99\n      jump\t// in\n    tag_150:\n        /* \"#utility.yul\":934:1053   */\n    tag_149:\n        /* \"#utility.yul\":1092:1093   */\n      0x00\n        /* \"#utility.yul\":1117:1170   */\n      tag_151\n        /* \"#utility.yul\":1162:1169   */\n      dup6\n        /* \"#utility.yul\":1153:1159   */\n      dup3\n        /* \"#utility.yul\":1142:1151   */\n      dup7\n        /* \"#utility.yul\":1138:1160   */\n      add\n        /* \"#utility.yul\":1117:1170   */\n      tag_104\n      jump\t// in\n    tag_151:\n        /* \"#utility.yul\":1107:1170   */\n      swap3\n      pop\n        /* \"#utility.yul\":1063:1180   */\n      pop\n        /* \"#utility.yul\":1219:1221   */\n      0x20\n        /* \"#utility.yul\":1245:1298   */\n      tag_152\n        /* \"#utility.yul\":1290:1297   */\n      dup6\n        /* \"#utility.yul\":1281:1287   */\n      dup3\n        /* \"#utility.yul\":1270:1279   */\n      dup7\n        /* \"#utility.yul\":1266:1288   */\n      add\n        /* \"#utility.yul\":1245:1298   */\n      tag_104\n      jump\t// in\n    tag_152:\n        /* \"#utility.yul\":1235:1298   */\n      swap2\n      pop\n        /* \"#utility.yul\":1190:1308   */\n      pop\n        /* \"#utility.yul\":841:1315   */\n      swap3\n      pop\n      swap3\n      swap1\n      pop\n      jump\t// out\n        /* \"#utility.yul\":1321:1650   */\n    tag_13:\n        /* \"#utility.yul\":1380:1386   */\n      0x00\n        /* \"#utility.yul\":1429:1431   */\n      0x20\n        /* \"#utility.yul\":1417:1426   */\n      dup3\n        /* \"#utility.yul\":1408:1415   */\n      dup5\n        /* \"#utility.yul\":1404:1427   */\n      sub\n        /* \"#utility.yul\":1400:1432   */\n      slt\n        /* \"#utility.yul\":1397:1516   */\n      iszero\n      tag_154\n      jumpi\n        /* \"#utility.yul\":1435:1514   */\n      tag_155\n      tag_99\n      jump\t// in\n    tag_155:\n        /* \"#utility.yul\":1397:1516   */\n    tag_154:\n        /* \"#utility.yul\":1555:1556   */\n      0x00\n        /* \"#utility.yul\":1580:1633   */\n      tag_156\n        /* \"#utility.yul\":1625:1632   */\n      dup5\n        /* \"#utility.yul\":1616:1622   */\n      dup3\n        /* \"#utility.yul\":1605:1614   */\n      dup6\n        /* \"#utility.yul\":1601:1623   */\n      add\n        /* \"#utility.yul\":1580:1633   */\n      tag_104\n      jump\t// in\n    tag_156:\n        /* \"#utility.yul\":1570:1633   */\n      swap2\n      pop\n        /* \"#utility.yul\":1526:1643   */\n      pop\n        /* \"#utility.yul\":1321:1650   */\n      swap3\n      swap2\n      pop\n      pop\n      jump\t// out\n        /* \"#utility.yul\":1656:1733   */\n    tag_105:\n        /* \"#utility.yul\":1693:1700   */\n      0x00\n        /* \"#utility.yul\":1722:1727   */\n      dup2\n        /* \"#utility.yul\":1711:1727   */\n      swap1\n      pop\n        /* \"#utility.yul\":1656:1733   */\n      swap2\n      swap1\n      pop\n      jump\t// out\n        /* \"#utility.yul\":1739:1857   */\n    tag_106:\n        /* \"#utility.yul\":1826:1850   */\n      tag_159\n        /* \"#utility.yul\":1844:1849   */\n      dup2\n        /* \"#utility.yul\":1826:1850   */\n      tag_105\n      jump\t// in\n    tag_159:\n        /* \"#utility.yul\":1821:1824   */\n      dup3\n        /* \"#utility.yul\":1814:1851   */\n      mstore\n        /* \"#utility.yul\":1739:1857   */\n      pop\n      pop\n      jump\t// out\n        /* \"#utility.yul\":1863:2195   */\n    tag_16:\n        /* \"#utility.yul\":1984:1988   */\n      0x00\n        /* \"#utility.yul\":2022:2024   */\n      0x40\n        /* \"#utility.yul\":2011:2020   */\n      dup3\n        /* \"#utility.yul\":2007:2025   */\n      add\n        /* \"#utility.yul\":1999:2025   */\n      swap1\n      pop\n        /* \"#utility.yul\":2035:2106   */\n      tag_161\n        /* \"#utility.yul\":2103:2104   */\n      0x00\n        /* \"#utility.yul\":2092:2101   */\n      dup4\n        /* \"#utility.yul\":2088:2105   */\n      add\n        /* \"#utility.yul\":2079:2085   */\n      dup6\n        /* \"#utility.yul\":2035:2106   */\n      tag_106\n      jump\t// in\n    tag_161:\n        /* \"#utility.yul\":2116:2188   */\n      tag_162\n        /* \"#utility.yul\":2184:2186   */\n      0x20\n        /* \"#utility.yul\":2173:2182   */\n      dup4\n        /* \"#utility.yul\":2169:2187   */\n      add\n        /* \"#utility.yul\":2160:2166   */\n      dup5\n        /* \"#utility.yul\":2116:2188   */\n      tag_106\n      jump\t// in\n    tag_162:\n        /* \"#utility.yul\":1863:2195   */\n      swap4\n      swap3\n      pop\n      pop\n      pop\n      jump\t// out\n        /* \"#utility.yul\":2201:2319   */\n    tag_107:\n        /* \"#utility.yul\":2288:2312   */\n      tag_164\n        /* \"#utility.yul\":2306:2311   */\n      dup2\n        /* \"#utility.yul\":2288:2312   */\n      tag_102\n      jump\t// in\n    tag_164:\n        /* \"#utility.yul\":2283:2286   */\n      dup3\n        /* \"#utility.yul\":2276:2313   */\n      mstore\n        /* \"#utility.yul\":2201:2319   */\n      pop\n      pop\n      jump\t// out\n        /* \"#utility.yul\":2325:2547   */\n    tag_20:\n        /* \"#utility.yul\":2418:2422   */\n      0x00\n        /* \"#utility.yul\":2456:2458   */\n      0x20\n        /* \"#utility.yul\":2445:2454   */\n      dup3\n        /* \"#utility.yul\":2441:2459   */\n      add\n        /* \"#utility.yul\":2433:2459   */\n      swap1\n      pop\n        /* \"#utility.yul\":2469:2540   */\n      tag_166\n        /* \"#utility.yul\":2537:2538   */\n      0x00\n        /* \"#utility.yul\":2526:2535   */\n      dup4\n        /* \"#utility.yul\":2522:2539   */\n      add\n        /* \"#utility.yul\":2513:2519   */\n      dup5\n        /* \"#utility.yul\":2469:2540   */\n      tag_107\n      jump\t// in\n    tag_166:\n        /* \"#utility.yul\":2325:2547   */\n      swap3\n      swap2\n      pop\n      pop\n      jump\t// out\n        /* \"#utility.yul\":2553:2675   */\n    tag_108:\n        /* \"#utility.yul\":2626:2650   */\n      tag_168\n        /* \"#utility.yul\":2644:2649   */\n      dup2\n        /* \"#utility.yul\":2626:2650   */\n      tag_105\n      jump\t// in\n    tag_168:\n        /* \"#utility.yul\":2619:2624   */\n      dup2\n        /* \"#utility.yul\":2616:2651   */\n      eq\n        /* \"#utility.yul\":2606:2669   */\n      tag_169\n      jumpi\n        /* \"#utility.yul\":2665:2666   */\n      0x00\n        /* \"#utility.yul\":2662:2663   */\n      dup1\n        /* \"#utility.yul\":2655:2667   */\n      revert\n        /* \"#utility.yul\":2606:2669   */\n    tag_169:\n        /* \"#utility.yul\":2553:2675   */\n      pop\n      jump\t// out\n        /* \"#utility.yul\":2681:2820   */\n    tag_109:\n        /* \"#utility.yul\":2727:2732   */\n      0x00\n        /* \"#utility.yul\":2765:2771   */\n      dup2\n        /* \"#utility.yul\":2752:2772   */\n      calldataload\n        /* \"#utility.yul\":2743:2772   */\n      swap1\n      pop\n        /* \"#utility.yul\":2781:2814   */\n      tag_171\n        /* \"#utility.yul\":2808:2813   */\n      dup2\n        /* \"#utility.yul\":2781:2814   */\n      tag_108\n      jump\t// in\n    tag_171:\n        /* \"#utility.yul\":2681:2820   */\n      swap3\n      swap2\n      pop\n      pop\n      jump\t// out\n        /* \"#utility.yul\":2826:3300   */\n    tag_23:\n        /* \"#utility.yul\":2894:2900   */\n      0x00\n        /* \"#utility.yul\":2902:2908   */\n      dup1\n        /* \"#utility.yul\":2951:2953   */\n      0x40\n        /* \"#utility.yul\":2939:2948   */\n      dup4\n        /* \"#utility.yul\":2930:2937   */\n      dup6\n        /* \"#utility.yul\":2926:2949   */\n      sub\n        /* \"#utility.yul\":2922:2954   */\n      slt\n        /* \"#utility.yul\":2919:3038   */\n      iszero\n      tag_173\n      jumpi\n        /* \"#utility.yul\":2957:3036   */\n      tag_174\n      tag_99\n      jump\t// in\n    tag_174:\n        /* \"#utility.yul\":2919:3038   */\n    tag_173:\n        /* \"#utility.yul\":3077:3078   */\n      0x00\n        /* \"#utility.yul\":3102:3155   */\n      tag_175\n        /* \"#utility.yul\":3147:3154   */\n      dup6\n        /* \"#utility.yul\":3138:3144   */\n      dup3\n        /* \"#utility.yul\":3127:3136   */\n      dup7\n        /* \"#utility.yul\":3123:3145   */\n      add\n        /* \"#utility.yul\":3102:3155   */\n      tag_104\n      jump\t// in\n    tag_175:\n        /* \"#utility.yul\":3092:3155   */\n      swap3\n      pop\n        /* \"#utility.yul\":3048:3165   */\n      pop\n        /* \"#utility.yul\":3204:3206   */\n      0x20\n        /* \"#utility.yul\":3230:3283   */\n      tag_176\n        /* \"#utility.yul\":3275:3282   */\n      dup6\n        /* \"#utility.yul\":3266:3272   */\n      dup3\n        /* \"#utility.yul\":3255:3264   */\n      dup7\n        /* \"#utility.yul\":3251:3273   */\n      add\n        /* \"#utility.yul\":3230:3283   */\n      tag_109\n      jump\t// in\n    tag_176:\n        /* \"#utility.yul\":3220:3283   */\n      swap2\n      pop\n        /* \"#utility.yul\":3175:3293   */\n      pop\n        /* \"#utility.yul\":2826:3300   */\n      swap3\n      pop\n      swap3\n      swap1\n      pop\n      jump\t// out\n        /* \"#utility.yul\":3306:3383   */\n    tag_110:\n        /* \"#utility.yul\":3343:3350   */\n      0x00\n        /* \"#utility.yul\":3372:3377   */\n      dup2\n        /* \"#utility.yul\":3361:3377   */\n      swap1\n      pop\n        /* \"#utility.yul\":3306:3383   */\n      swap2\n      swap1\n      pop\n      jump\t// out\n        /* \"#utility.yul\":3389:3507   */\n    tag_111:\n        /* \"#utility.yul\":3476:3500   */\n      tag_179\n        /* \"#utility.yul\":3494:3499   */\n      dup2\n        /* \"#utility.yul\":3476:3500   */\n      tag_110\n      jump\t// in\n    tag_179:\n        /* \"#utility.yul\":3471:3474   */\n      dup3\n        /* \"#utility.yul\":3464:3501   */\n      mstore\n        /* \"#utility.yul\":3389:3507   */\n      pop\n      pop\n      jump\t// out\n        /* \"#utility.yul\":3513:3735   */\n    tag_26:\n        /* \"#utility.yul\":3606:3610   */\n      0x00\n        /* \"#utility.yul\":3644:3646   */\n      0x20\n        /* \"#utility.yul\":3633:3642   */\n      dup3\n        /* \"#utility.yul\":3629:3647   */\n      add\n        /* \"#utility.yul\":3621:3647   */\n      swap1\n      pop\n        /* \"#utility.yul\":3657:3728   */\n      tag_181\n        /* \"#utility.yul\":3725:3726   */\n      0x00\n        /* \"#utility.yul\":3714:3723   */\n      dup4\n        /* \"#utility.yul\":3710:3727   */\n      add\n        /* \"#utility.yul\":3701:3707   */\n      dup5\n        /* \"#utility.yul\":3657:3728   */\n      tag_111\n      jump\t// in\n    tag_181:\n        /* \"#utility.yul\":3513:3735   */\n      swap3\n      swap2\n      pop\n      pop\n      jump\t// out\n        /* \"#utility.yul\":3741:3884   */\n    tag_112:\n        /* \"#utility.yul\":3798:3803   */\n      0x00\n        /* \"#utility.yul\":3829:3835   */\n      dup2\n        /* \"#utility.yul\":3823:3836   */\n      mload\n        /* \"#utility.yul\":3814:3836   */\n      swap1\n      pop\n        /* \"#utility.yul\":3845:3878   */\n      tag_183\n        /* \"#utility.yul\":3872:3877   */\n      dup2\n        /* \"#utility.yul\":3845:3878   */\n      tag_108\n      jump\t// in\n    tag_183:\n        /* \"#utility.yul\":3741:3884   */\n      swap3\n      swap2\n      pop\n      pop\n      jump\t// out\n        /* \"#utility.yul\":3890:4241   */\n    tag_34:\n        /* \"#utility.yul\":3960:3966   */\n      0x00\n        /* \"#utility.yul\":4009:4011   */\n      0x20\n        /* \"#utility.yul\":3997:4006   */\n      dup3\n        /* \"#utility.yul\":3988:3995   */\n      dup5\n        /* \"#utility.yul\":3984:4007   */\n      sub\n        /* \"#utility.yul\":3980:4012   */\n      slt\n        /* \"#utility.yul\":3977:4096   */\n      iszero\n      tag_185\n      jumpi\n        /* \"#utility.yul\":4015:4094   */\n      tag_186\n      tag_99\n      jump\t// in\n    tag_186:\n        /* \"#utility.yul\":3977:4096   */\n    tag_185:\n        /* \"#utility.yul\":4135:4136   */\n      0x00\n        /* \"#utility.yul\":4160:4224   */\n      tag_187\n        /* \"#utility.yul\":4216:4223   */\n      dup5\n        /* \"#utility.yul\":4207:4213   */\n      dup3\n        /* \"#utility.yul\":4196:4205   */\n      dup6\n        /* \"#utility.yul\":4192:4214   */\n      add\n        /* \"#utility.yul\":4160:4224   */\n      tag_112\n      jump\t// in\n    tag_187:\n        /* \"#utility.yul\":4150:4224   */\n      swap2\n      pop\n        /* \"#utility.yul\":4106:4234   */\n      pop\n        /* \"#utility.yul\":3890:4241   */\n      swap3\n      swap2\n      pop\n      pop\n      jump\t// out\n        /* \"#utility.yul\":4247:4579   */\n    tag_37:\n        /* \"#utility.yul\":4368:4372   */\n      0x00\n        /* \"#utility.yul\":4406:4408   */\n      0x40\n        /* \"#utility.yul\":4395:4404   */\n      dup3\n        /* \"#utility.yul\":4391:4409   */\n      add\n        /* \"#utility.yul\":4383:4409   */\n      swap1\n      pop\n        /* \"#utility.yul\":4419:4490   */\n      tag_189\n        /* \"#utility.yul\":4487:4488   */\n      0x00\n        /* \"#utility.yul\":4476:4485   */\n      dup4\n        /* \"#utility.yul\":4472:4489   */\n      add\n        /* \"#utility.yul\":4463:4469   */\n      dup6\n        /* \"#utility.yul\":4419:4490   */\n      tag_107\n      jump\t// in\n    tag_189:\n        /* \"#utility.yul\":4500:4572   */\n      tag_190\n        /* \"#utility.yul\":4568:4570   */\n      0x20\n        /* \"#utility.yul\":4557:4566   */\n      dup4\n        /* \"#utility.yul\":4553:4571   */\n      add\n        /* \"#utility.yul\":4544:4550   */\n      dup5\n        /* \"#utility.yul\":4500:4572   */\n      tag_106\n      jump\t// in\n    tag_190:\n        /* \"#utility.yul\":4247:4579   */\n      swap4\n      swap3\n      pop\n      pop\n      pop\n      jump\t// out\n        /* \"#utility.yul\":4585:4675   */\n    tag_113:\n        /* \"#utility.yul\":4619:4626   */\n      0x00\n        /* \"#utility.yul\":4662:4667   */\n      dup2\n        /* \"#utility.yul\":4655:4668   */\n      iszero\n        /* \"#utility.yul\":4648:4669   */\n      iszero\n        /* \"#utility.yul\":4637:4669   */\n      swap1\n      pop\n        /* \"#utility.yul\":4585:4675   */\n      swap2\n      swap1\n      pop\n      jump\t// out\n        /* \"#utility.yul\":4681:4797   */\n    tag_114:\n        /* \"#utility.yul\":4751:4772   */\n      tag_193\n        /* \"#utility.yul\":4766:4771   */\n      dup2\n        /* \"#utility.yul\":4751:4772   */\n      tag_113\n      jump\t// in\n    tag_193:\n        /* \"#utility.yul\":4744:4749   */\n      dup2\n        /* \"#utility.yul\":4741:4773   */\n      eq\n        /* \"#utility.yul\":4731:4791   */\n      tag_194\n      jumpi\n        /* \"#utility.yul\":4787:4788   */\n      0x00\n        /* \"#utility.yul\":4784:4785   */\n      dup1\n        /* \"#utility.yul\":4777:4789   */\n      revert\n        /* \"#utility.yul\":4731:4791   */\n    tag_194:\n        /* \"#utility.yul\":4681:4797   */\n      pop\n      jump\t// out\n        /* \"#utility.yul\":4803:4940   */\n    tag_115:\n        /* \"#utility.yul\":4857:4862   */\n      0x00\n        /* \"#utility.yul\":4888:4894   */\n      dup2\n        /* \"#utility.yul\":4882:4895   */\n      mload\n        /* \"#utility.yul\":4873:4895   */\n      swap1\n      pop\n        /* \"#utility.yul\":4904:4934   */\n      tag_196\n        /* \"#utility.yul\":4928:4933   */\n      dup2\n        /* \"#utility.yul\":4904:4934   */\n      tag_114\n      jump\t// in\n    tag_196:\n        /* \"#utility.yul\":4803:4940   */\n      swap3\n      swap2\n      pop\n      pop\n      jump\t// out\n        /* \"#utility.yul\":4946:5291   */\n    tag_41:\n        /* \"#utility.yul\":5013:5019   */\n      0x00\n        /* \"#utility.yul\":5062:5064   */\n      0x20\n        /* \"#utility.yul\":5050:5059   */\n      dup3\n        /* \"#utility.yul\":5041:5048   */\n      dup5\n        /* \"#utility.yul\":5037:5060   */\n      sub\n        /* \"#utility.yul\":5033:5065   */\n      slt\n        /* \"#utility.yul\":5030:5149   */\n      iszero\n      tag_198\n      jumpi\n        /* \"#utility.yul\":5068:5147   */\n      tag_199\n      tag_99\n      jump\t// in\n    tag_199:\n        /* \"#utility.yul\":5030:5149   */\n    tag_198:\n        /* \"#utility.yul\":5188:5189   */\n      0x00\n        /* \"#utility.yul\":5213:5274   */\n      tag_200\n        /* \"#utility.yul\":5266:5273   */\n      dup5\n        /* \"#utility.yul\":5257:5263   */\n      dup3\n        /* \"#utility.yul\":5246:5255   */\n      dup6\n        /* \"#utility.yul\":5242:5264   */\n      add\n        /* \"#utility.yul\":5213:5274   */\n      tag_115\n      jump\t// in\n    tag_200:\n        /* \"#utility.yul\":5203:5274   */\n      swap2\n      pop\n        /* \"#utility.yul\":5159:5284   */\n      pop\n        /* \"#utility.yul\":4946:5291   */\n      swap3\n      swap2\n      pop\n      pop\n      jump\t// out\n        /* \"#utility.yul\":5297:5477   */\n    tag_54:\n        /* \"#utility.yul\":5345:5422   */\n      0x4e487b7100000000000000000000000000000000000000000000000000000000\n        /* \"#utility.yul\":5342:5343   */\n      0x00\n        /* \"#utility.yul\":5335:5423   */\n      mstore\n        /* \"#utility.yul\":5442:5446   */\n      0x41\n        /* \"#utility.yul\":5439:5440   */\n      0x04\n        /* \"#utility.yul\":5432:5447   */\n      mstore\n        /* \"#utility.yul\":5466:5470   */\n      0x24\n        /* \"#utility.yul\":5463:5464   */\n      0x00\n        /* \"#utility.yul\":5456:5471   */\n      revert\n        /* \"#utility.yul\":5483:5663   */\n    tag_61:\n        /* \"#utility.yul\":5531:5608   */\n      0x4e487b7100000000000000000000000000000000000000000000000000000000\n        /* \"#utility.yul\":5528:5529   */\n      0x00\n        /* \"#utility.yul\":5521:5609   */\n      mstore\n        /* \"#utility.yul\":5628:5632   */\n      0x32\n        /* \"#utility.yul\":5625:5626   */\n      0x04\n        /* \"#utility.yul\":5618:5633   */\n      mstore\n        /* \"#utility.yul\":5652:5656   */\n      0x24\n        /* \"#utility.yul\":5649:5650   */\n      0x00\n        /* \"#utility.yul\":5642:5657   */\n      revert\n        /* \"#utility.yul\":5669:5770   */\n    tag_116:\n        /* \"#utility.yul\":5705:5712   */\n      0x00\n        /* \"#utility.yul\":5745:5763   */\n      0xffffffffffffffff\n        /* \"#utility.yul\":5738:5743   */\n      dup3\n        /* \"#utility.yul\":5734:5764   */\n      and\n        /* \"#utility.yul\":5723:5764   */\n      swap1\n      pop\n        /* \"#utility.yul\":5669:5770   */\n      swap2\n      swap1\n      pop\n      jump\t// out\n        /* \"#utility.yul\":5776:5891   */\n    tag_117:\n        /* \"#utility.yul\":5861:5884   */\n      tag_205\n        /* \"#utility.yul\":5878:5883   */\n      dup2\n        /* \"#utility.yul\":5861:5884   */\n      tag_116\n      jump\t// in\n    tag_205:\n        /* \"#utility.yul\":5856:5859   */\n      dup3\n        /* \"#utility.yul\":5849:5885   */\n      mstore\n        /* \"#utility.yul\":5776:5891   */\n      pop\n      pop\n      jump\t// out\n        /* \"#utility.yul\":5897:5995   */\n    tag_118:\n        /* \"#utility.yul\":5948:5954   */\n      0x00\n        /* \"#utility.yul\":5982:5987   */\n      dup2\n        /* \"#utility.yul\":5976:5988   */\n      mload\n        /* \"#utility.yul\":5966:5988   */\n      swap1\n      pop\n        /* \"#utility.yul\":5897:5995   */\n      swap2\n      swap1\n      pop\n      jump\t// out\n        /* \"#utility.yul\":6001:6159   */\n    tag_119:\n        /* \"#utility.yul\":6074:6085   */\n      0x00\n        /* \"#utility.yul\":6108:6114   */\n      dup3\n        /* \"#utility.yul\":6103:6106   */\n      dup3\n        /* \"#utility.yul\":6096:6115   */\n      mstore\n        /* \"#utility.yul\":6148:6152   */\n      0x20\n        /* \"#utility.yul\":6143:6146   */\n      dup3\n        /* \"#utility.yul\":6139:6153   */\n      add\n        /* \"#utility.yul\":6124:6153   */\n      swap1\n      pop\n        /* \"#utility.yul\":6001:6159   */\n      swap3\n      swap2\n      pop\n      pop\n      jump\t// out\n        /* \"#utility.yul\":6165:6411   */\n    tag_120:\n        /* \"#utility.yul\":6246:6247   */\n      0x00\n        /* \"#utility.yul\":6256:6369   */\n    tag_209:\n        /* \"#utility.yul\":6270:6276   */\n      dup4\n        /* \"#utility.yul\":6267:6268   */\n      dup2\n        /* \"#utility.yul\":6264:6277   */\n      lt\n        /* \"#utility.yul\":6256:6369   */\n      iszero\n      tag_211\n      jumpi\n        /* \"#utility.yul\":6355:6356   */\n      dup1\n        /* \"#utility.yul\":6350:6353   */\n      dup3\n        /* \"#utility.yul\":6346:6357   */\n      add\n        /* \"#utility.yul\":6340:6358   */\n      mload\n        /* \"#utility.yul\":6336:6337   */\n      dup2\n        /* \"#utility.yul\":6331:6334   */\n      dup5\n        /* \"#utility.yul\":6327:6338   */\n      add\n        /* \"#utility.yul\":6320:6359   */\n      mstore\n        /* \"#utility.yul\":6292:6294   */\n      0x20\n        /* \"#utility.yul\":6289:6290   */\n      dup2\n        /* \"#utility.yul\":6285:6295   */\n      add\n        /* \"#utility.yul\":6280:6295   */\n      swap1\n      pop\n        /* \"#utility.yul\":6256:6369   */\n      jump(tag_209)\n    tag_211:\n        /* \"#utility.yul\":6403:6404   */\n      0x00\n        /* \"#utility.yul\":6394:6400   */\n      dup5\n        /* \"#utility.yul\":6389:6392   */\n      dup5\n        /* \"#utility.yul\":6385:6401   */\n      add\n        /* \"#utility.yul\":6378:6405   */\n      mstore\n        /* \"#utility.yul\":6227:6411   */\n      pop\n        /* \"#utility.yul\":6165:6411   */\n      pop\n      pop\n      pop\n      jump\t// out\n        /* \"#utility.yul\":6417:6519   */\n    tag_121:\n        /* \"#utility.yul\":6458:6464   */\n      0x00\n        /* \"#utility.yul\":6509:6511   */\n      0x1f\n        /* \"#utility.yul\":6505:6512   */\n      not\n        /* \"#utility.yul\":6500:6502   */\n      0x1f\n        /* \"#utility.yul\":6493:6498   */\n      dup4\n        /* \"#utility.yul\":6489:6503   */\n      add\n        /* \"#utility.yul\":6485:6513   */\n      and\n        /* \"#utility.yul\":6475:6513   */\n      swap1\n      pop\n        /* \"#utility.yul\":6417:6519   */\n      swap2\n      swap1\n      pop\n      jump\t// out\n        /* \"#utility.yul\":6525:6878   */\n    tag_122:\n        /* \"#utility.yul\":6601:6604   */\n      0x00\n        /* \"#utility.yul\":6629:6667   */\n      tag_214\n        /* \"#utility.yul\":6661:6666   */\n      dup3\n        /* \"#utility.yul\":6629:6667   */\n      tag_118\n      jump\t// in\n    tag_214:\n        /* \"#utility.yul\":6683:6743   */\n      tag_215\n        /* \"#utility.yul\":6736:6742   */\n      dup2\n        /* \"#utility.yul\":6731:6734   */\n      dup6\n        /* \"#utility.yul\":6683:6743   */\n      tag_119\n      jump\t// in\n    tag_215:\n        /* \"#utility.yul\":6676:6743   */\n      swap4\n      pop\n        /* \"#utility.yul\":6752:6817   */\n      tag_216\n        /* \"#utility.yul\":6810:6816   */\n      dup2\n        /* \"#utility.yul\":6805:6808   */\n      dup6\n        /* \"#utility.yul\":6798:6802   */\n      0x20\n        /* \"#utility.yul\":6791:6796   */\n      dup7\n        /* \"#utility.yul\":6787:6803   */\n      add\n        /* \"#utility.yul\":6752:6817   */\n      tag_120\n      jump\t// in\n    tag_216:\n        /* \"#utility.yul\":6842:6871   */\n      tag_217\n        /* \"#utility.yul\":6864:6870   */\n      dup2\n        /* \"#utility.yul\":6842:6871   */\n      tag_121\n      jump\t// in\n    tag_217:\n        /* \"#utility.yul\":6837:6840   */\n      dup5\n        /* \"#utility.yul\":6833:6872   */\n      add\n        /* \"#utility.yul\":6826:6872   */\n      swap2\n      pop\n        /* \"#utility.yul\":6605:6878   */\n      pop\n        /* \"#utility.yul\":6525:6878   */\n      swap3\n      swap2\n      pop\n      pop\n      jump\t// out\n        /* \"#utility.yul\":6884:7028   */\n    tag_123:\n        /* \"#utility.yul\":6981:6987   */\n      0x00\n        /* \"#utility.yul\":7015:7020   */\n      dup2\n        /* \"#utility.yul\":7009:7021   */\n      mload\n        /* \"#utility.yul\":6999:7021   */\n      swap1\n      pop\n        /* \"#utility.yul\":6884:7028   */\n      swap2\n      swap1\n      pop\n      jump\t// out\n        /* \"#utility.yul\":7034:7238   */\n    tag_124:\n        /* \"#utility.yul\":7153:7164   */\n      0x00\n        /* \"#utility.yul\":7187:7193   */\n      dup3\n        /* \"#utility.yul\":7182:7185   */\n      dup3\n        /* \"#utility.yul\":7175:7194   */\n      mstore\n        /* \"#utility.yul\":7227:7231   */\n      0x20\n        /* \"#utility.yul\":7222:7225   */\n      dup3\n        /* \"#utility.yul\":7218:7232   */\n      add\n        /* \"#utility.yul\":7203:7232   */\n      swap1\n      pop\n        /* \"#utility.yul\":7034:7238   */\n      swap3\n      swap2\n      pop\n      pop\n      jump\t// out\n        /* \"#utility.yul\":7244:7406   */\n    tag_125:\n        /* \"#utility.yul\":7341:7345   */\n      0x00\n        /* \"#utility.yul\":7364:7367   */\n      dup2\n        /* \"#utility.yul\":7356:7367   */\n      swap1\n      pop\n        /* \"#utility.yul\":7394:7398   */\n      0x20\n        /* \"#utility.yul\":7389:7392   */\n      dup3\n        /* \"#utility.yul\":7385:7399   */\n      add\n        /* \"#utility.yul\":7377:7399   */\n      swap1\n      pop\n        /* \"#utility.yul\":7244:7406   */\n      swap2\n      swap1\n      pop\n      jump\t// out\n        /* \"#utility.yul\":7412:7520   */\n    tag_126:\n        /* \"#utility.yul\":7489:7513   */\n      tag_222\n        /* \"#utility.yul\":7507:7512   */\n      dup2\n        /* \"#utility.yul\":7489:7513   */\n      tag_102\n      jump\t// in\n    tag_222:\n        /* \"#utility.yul\":7484:7487   */\n      dup3\n        /* \"#utility.yul\":7477:7514   */\n      mstore\n        /* \"#utility.yul\":7412:7520   */\n      pop\n      pop\n      jump\t// out\n        /* \"#utility.yul\":7526:7634   */\n    tag_127:\n        /* \"#utility.yul\":7603:7627   */\n      tag_224\n        /* \"#utility.yul\":7621:7626   */\n      dup2\n        /* \"#utility.yul\":7603:7627   */\n      tag_105\n      jump\t// in\n    tag_224:\n        /* \"#utility.yul\":7598:7601   */\n      dup3\n        /* \"#utility.yul\":7591:7628   */\n      mstore\n        /* \"#utility.yul\":7526:7634   */\n      pop\n      pop\n      jump\t// out\n        /* \"#utility.yul\":7708:8218   */\n    tag_128:\n        /* \"#utility.yul\":7855:7859   */\n      0x40\n        /* \"#utility.yul\":7850:7853   */\n      dup3\n        /* \"#utility.yul\":7846:7860   */\n      add\n        /* \"#utility.yul\":7943:7947   */\n      0x00\n        /* \"#utility.yul\":7936:7941   */\n      dup3\n        /* \"#utility.yul\":7932:7948   */\n      add\n        /* \"#utility.yul\":7926:7949   */\n      mload\n        /* \"#utility.yul\":7962:8025   */\n      tag_226\n        /* \"#utility.yul\":8019:8023   */\n      0x00\n        /* \"#utility.yul\":8014:8017   */\n      dup6\n        /* \"#utility.yul\":8010:8024   */\n      add\n        /* \"#utility.yul\":7996:8008   */\n      dup3\n        /* \"#utility.yul\":7962:8025   */\n      tag_126\n      jump\t// in\n    tag_226:\n        /* \"#utility.yul\":7870:8035   */\n      pop\n        /* \"#utility.yul\":8119:8123   */\n      0x20\n        /* \"#utility.yul\":8112:8117   */\n      dup3\n        /* \"#utility.yul\":8108:8124   */\n      add\n        /* \"#utility.yul\":8102:8125   */\n      mload\n        /* \"#utility.yul\":8138:8201   */\n      tag_227\n        /* \"#utility.yul\":8195:8199   */\n      0x20\n        /* \"#utility.yul\":8190:8193   */\n      dup6\n        /* \"#utility.yul\":8186:8200   */\n      add\n        /* \"#utility.yul\":8172:8184   */\n      dup3\n        /* \"#utility.yul\":8138:8201   */\n      tag_127\n      jump\t// in\n    tag_227:\n        /* \"#utility.yul\":8045:8211   */\n      pop\n        /* \"#utility.yul\":7824:8218   */\n      pop\n        /* \"#utility.yul\":7708:8218   */\n      pop\n      pop\n      jump\t// out\n        /* \"#utility.yul\":8224:8523   */\n    tag_129:\n        /* \"#utility.yul\":8353:8363   */\n      0x00\n        /* \"#utility.yul\":8374:8480   */\n      tag_229\n        /* \"#utility.yul\":8476:8479   */\n      dup4\n        /* \"#utility.yul\":8468:8474   */\n      dup4\n        /* \"#utility.yul\":8374:8480   */\n      tag_128\n      jump\t// in\n    tag_229:\n        /* \"#utility.yul\":8512:8516   */\n      0x40\n        /* \"#utility.yul\":8507:8510   */\n      dup4\n        /* \"#utility.yul\":8503:8517   */\n      add\n        /* \"#utility.yul\":8489:8517   */\n      swap1\n      pop\n        /* \"#utility.yul\":8224:8523   */\n      swap3\n      swap2\n      pop\n      pop\n      jump\t// out\n        /* \"#utility.yul\":8529:8672   */\n    tag_130:\n        /* \"#utility.yul\":8629:8633   */\n      0x00\n        /* \"#utility.yul\":8661:8665   */\n      0x20\n        /* \"#utility.yul\":8656:8659   */\n      dup3\n        /* \"#utility.yul\":8652:8666   */\n      add\n        /* \"#utility.yul\":8644:8666   */\n      swap1\n      pop\n        /* \"#utility.yul\":8529:8672   */\n      swap2\n      swap1\n      pop\n      jump\t// out\n        /* \"#utility.yul\":8750:9702   */\n    tag_131:\n        /* \"#utility.yul\":8919:8922   */\n      0x00\n        /* \"#utility.yul\":8948:9032   */\n      tag_232\n        /* \"#utility.yul\":9026:9031   */\n      dup3\n        /* \"#utility.yul\":8948:9032   */\n      tag_123\n      jump\t// in\n    tag_232:\n        /* \"#utility.yul\":9048:9154   */\n      tag_233\n        /* \"#utility.yul\":9147:9153   */\n      dup2\n        /* \"#utility.yul\":9142:9145   */\n      dup6\n        /* \"#utility.yul\":9048:9154   */\n      tag_124\n      jump\t// in\n    tag_233:\n        /* \"#utility.yul\":9041:9154   */\n      swap4\n      pop\n        /* \"#utility.yul\":9178:9264   */\n      tag_234\n        /* \"#utility.yul\":9258:9263   */\n      dup4\n        /* \"#utility.yul\":9178:9264   */\n      tag_125\n      jump\t// in\n    tag_234:\n        /* \"#utility.yul\":9287:9294   */\n      dup1\n        /* \"#utility.yul\":9318:9319   */\n      0x00\n        /* \"#utility.yul\":9303:9677   */\n    tag_235:\n        /* \"#utility.yul\":9328:9334   */\n      dup4\n        /* \"#utility.yul\":9325:9326   */\n      dup2\n        /* \"#utility.yul\":9322:9335   */\n      lt\n        /* \"#utility.yul\":9303:9677   */\n      iszero\n      tag_237\n      jumpi\n        /* \"#utility.yul\":9404:9410   */\n      dup2\n        /* \"#utility.yul\":9398:9411   */\n      mload\n        /* \"#utility.yul\":9431:9554   */\n      tag_238\n        /* \"#utility.yul\":9550:9553   */\n      dup9\n        /* \"#utility.yul\":9535:9548   */\n      dup3\n        /* \"#utility.yul\":9431:9554   */\n      tag_129\n      jump\t// in\n    tag_238:\n        /* \"#utility.yul\":9424:9554   */\n      swap8\n      pop\n        /* \"#utility.yul\":9577:9667   */\n      tag_239\n        /* \"#utility.yul\":9660:9666   */\n      dup4\n        /* \"#utility.yul\":9577:9667   */\n      tag_130\n      jump\t// in\n    tag_239:\n        /* \"#utility.yul\":9567:9667   */\n      swap3\n      pop\n        /* \"#utility.yul\":9363:9677   */\n      pop\n        /* \"#utility.yul\":9350:9351   */\n      0x01\n        /* \"#utility.yul\":9347:9348   */\n      dup2\n        /* \"#utility.yul\":9343:9352   */\n      add\n        /* \"#utility.yul\":9338:9352   */\n      swap1\n      pop\n        /* \"#utility.yul\":9303:9677   */\n      jump(tag_235)\n    tag_237:\n        /* \"#utility.yul\":9307:9321   */\n      pop\n        /* \"#utility.yul\":9693:9696   */\n      dup6\n        /* \"#utility.yul\":9686:9696   */\n      swap4\n      pop\n        /* \"#utility.yul\":8924:9702   */\n      pop\n      pop\n      pop\n        /* \"#utility.yul\":8750:9702   */\n      swap3\n      swap2\n      pop\n      pop\n      jump\t// out\n        /* \"#utility.yul\":9776:11232   */\n    tag_132:\n        /* \"#utility.yul\":9905:9908   */\n      0x00\n        /* \"#utility.yul\":9941:9945   */\n      0xa0\n        /* \"#utility.yul\":9936:9939   */\n      dup4\n        /* \"#utility.yul\":9932:9946   */\n      add\n        /* \"#utility.yul\":10032:10036   */\n      0x00\n        /* \"#utility.yul\":10025:10030   */\n      dup4\n        /* \"#utility.yul\":10021:10037   */\n      add\n        /* \"#utility.yul\":10015:10038   */\n      mload\n        /* \"#utility.yul\":10085:10088   */\n      dup5\n        /* \"#utility.yul\":10079:10083   */\n      dup3\n        /* \"#utility.yul\":10075:10089   */\n      sub\n        /* \"#utility.yul\":10068:10072   */\n      0x00\n        /* \"#utility.yul\":10063:10066   */\n      dup7\n        /* \"#utility.yul\":10059:10073   */\n      add\n        /* \"#utility.yul\":10052:10090   */\n      mstore\n        /* \"#utility.yul\":10111:10182   */\n      tag_241\n        /* \"#utility.yul\":10177:10181   */\n      dup3\n        /* \"#utility.yul\":10163:10175   */\n      dup3\n        /* \"#utility.yul\":10111:10182   */\n      tag_122\n      jump\t// in\n    tag_241:\n        /* \"#utility.yul\":10103:10182   */\n      swap2\n      pop\n        /* \"#utility.yul\":9956:10193   */\n      pop\n        /* \"#utility.yul\":10275:10279   */\n      0x20\n        /* \"#utility.yul\":10268:10273   */\n      dup4\n        /* \"#utility.yul\":10264:10280   */\n      add\n        /* \"#utility.yul\":10258:10281   */\n      mload\n        /* \"#utility.yul\":10328:10331   */\n      dup5\n        /* \"#utility.yul\":10322:10326   */\n      dup3\n        /* \"#utility.yul\":10318:10332   */\n      sub\n        /* \"#utility.yul\":10311:10315   */\n      0x20\n        /* \"#utility.yul\":10306:10309   */\n      dup7\n        /* \"#utility.yul\":10302:10316   */\n      add\n        /* \"#utility.yul\":10295:10333   */\n      mstore\n        /* \"#utility.yul\":10354:10425   */\n      tag_242\n        /* \"#utility.yul\":10420:10424   */\n      dup3\n        /* \"#utility.yul\":10406:10418   */\n      dup3\n        /* \"#utility.yul\":10354:10425   */\n      tag_122\n      jump\t// in\n    tag_242:\n        /* \"#utility.yul\":10346:10425   */\n      swap2\n      pop\n        /* \"#utility.yul\":10203:10436   */\n      pop\n        /* \"#utility.yul\":10526:10530   */\n      0x40\n        /* \"#utility.yul\":10519:10524   */\n      dup4\n        /* \"#utility.yul\":10515:10531   */\n      add\n        /* \"#utility.yul\":10509:10532   */\n      mload\n        /* \"#utility.yul\":10579:10582   */\n      dup5\n        /* \"#utility.yul\":10573:10577   */\n      dup3\n        /* \"#utility.yul\":10569:10583   */\n      sub\n        /* \"#utility.yul\":10562:10566   */\n      0x40\n        /* \"#utility.yul\":10557:10560   */\n      dup7\n        /* \"#utility.yul\":10553:10567   */\n      add\n        /* \"#utility.yul\":10546:10584   */\n      mstore\n        /* \"#utility.yul\":10605:10768   */\n      tag_243\n        /* \"#utility.yul\":10763:10767   */\n      dup3\n        /* \"#utility.yul\":10749:10761   */\n      dup3\n        /* \"#utility.yul\":10605:10768   */\n      tag_131\n      jump\t// in\n    tag_243:\n        /* \"#utility.yul\":10597:10768   */\n      swap2\n      pop\n        /* \"#utility.yul\":10446:10779   */\n      pop\n        /* \"#utility.yul\":10865:10869   */\n      0x60\n        /* \"#utility.yul\":10858:10863   */\n      dup4\n        /* \"#utility.yul\":10854:10870   */\n      add\n        /* \"#utility.yul\":10848:10871   */\n      mload\n        /* \"#utility.yul\":10884:10947   */\n      tag_244\n        /* \"#utility.yul\":10941:10945   */\n      0x60\n        /* \"#utility.yul\":10936:10939   */\n      dup7\n        /* \"#utility.yul\":10932:10946   */\n      add\n        /* \"#utility.yul\":10918:10930   */\n      dup3\n        /* \"#utility.yul\":10884:10947   */\n      tag_126\n      jump\t// in\n    tag_244:\n        /* \"#utility.yul\":10789:10957   */\n      pop\n        /* \"#utility.yul\":11044:11048   */\n      0x80\n        /* \"#utility.yul\":11037:11042   */\n      dup4\n        /* \"#utility.yul\":11033:11049   */\n      add\n        /* \"#utility.yul\":11027:11050   */\n      mload\n        /* \"#utility.yul\":11097:11100   */\n      dup5\n        /* \"#utility.yul\":11091:11095   */\n      dup3\n        /* \"#utility.yul\":11087:11101   */\n      sub\n        /* \"#utility.yul\":11080:11084   */\n      0x80\n        /* \"#utility.yul\":11075:11078   */\n      dup7\n        /* \"#utility.yul\":11071:11085   */\n      add\n        /* \"#utility.yul\":11064:11102   */\n      mstore\n        /* \"#utility.yul\":11123:11194   */\n      tag_245\n        /* \"#utility.yul\":11189:11193   */\n      dup3\n        /* \"#utility.yul\":11175:11187   */\n      dup3\n        /* \"#utility.yul\":11123:11194   */\n      tag_122\n      jump\t// in\n    tag_245:\n        /* \"#utility.yul\":11115:11194   */\n      swap2\n      pop\n        /* \"#utility.yul\":10967:11205   */\n      pop\n        /* \"#utility.yul\":11222:11226   */\n      dup1\n        /* \"#utility.yul\":11215:11226   */\n      swap2\n      pop\n        /* \"#utility.yul\":9910:11232   */\n      pop\n        /* \"#utility.yul\":9776:11232   */\n      swap3\n      swap2\n      pop\n      pop\n      jump\t// out\n        /* \"#utility.yul\":11238:11737   */\n    tag_66:\n        /* \"#utility.yul\":11417:11421   */\n      0x00\n        /* \"#utility.yul\":11455:11457   */\n      0x40\n        /* \"#utility.yul\":11444:11453   */\n      dup3\n        /* \"#utility.yul\":11440:11458   */\n      add\n        /* \"#utility.yul\":11432:11458   */\n      swap1\n      pop\n        /* \"#utility.yul\":11468:11537   */\n      tag_247\n        /* \"#utility.yul\":11534:11535   */\n      0x00\n        /* \"#utility.yul\":11523:11532   */\n      dup4\n        /* \"#utility.yul\":11519:11536   */\n      add\n        /* \"#utility.yul\":11510:11516   */\n      dup6\n        /* \"#utility.yul\":11468:11537   */\n      tag_117\n      jump\t// in\n    tag_247:\n        /* \"#utility.yul\":11584:11593   */\n      dup2\n        /* \"#utility.yul\":11578:11582   */\n      dup2\n        /* \"#utility.yul\":11574:11594   */\n      sub\n        /* \"#utility.yul\":11569:11571   */\n      0x20\n        /* \"#utility.yul\":11558:11567   */\n      dup4\n        /* \"#utility.yul\":11554:11572   */\n      add\n        /* \"#utility.yul\":11547:11595   */\n      mstore\n        /* \"#utility.yul\":11612:11730   */\n      tag_248\n        /* \"#utility.yul\":11725:11729   */\n      dup2\n        /* \"#utility.yul\":11716:11722   */\n      dup5\n        /* \"#utility.yul\":11612:11730   */\n      tag_132\n      jump\t// in\n    tag_248:\n        /* \"#utility.yul\":11604:11730   */\n      swap1\n      pop\n        /* \"#utility.yul\":11238:11737   */\n      swap4\n      swap3\n      pop\n      pop\n      pop\n      jump\t// out\n        /* \"#utility.yul\":11743:11865   */\n    tag_133:\n        /* \"#utility.yul\":11816:11840   */\n      tag_250\n        /* \"#utility.yul\":11834:11839   */\n      dup2\n        /* \"#utility.yul\":11816:11840   */\n      tag_110\n      jump\t// in\n    tag_250:\n        /* \"#utility.yul\":11809:11814   */\n      dup2\n        /* \"#utility.yul\":11806:11841   */\n      eq\n        /* \"#utility.yul\":11796:11859   */\n      tag_251\n      jumpi\n        /* \"#utility.yul\":11855:11856   */\n      0x00\n        /* \"#utility.yul\":11852:11853   */\n      dup1\n        /* \"#utility.yul\":11845:11857   */\n      revert\n        /* \"#utility.yul\":11796:11859   */\n    tag_251:\n        /* \"#utility.yul\":11743:11865   */\n      pop\n      jump\t// out\n        /* \"#utility.yul\":11871:12014   */\n    tag_134:\n        /* \"#utility.yul\":11928:11933   */\n      0x00\n        /* \"#utility.yul\":11959:11965   */\n      dup2\n        /* \"#utility.yul\":11953:11966   */\n      mload\n        /* \"#utility.yul\":11944:11966   */\n      swap1\n      pop\n        /* \"#utility.yul\":11975:12008   */\n      tag_253\n        /* \"#utility.yul\":12002:12007   */\n      dup2\n        /* \"#utility.yul\":11975:12008   */\n      tag_133\n      jump\t// in\n    tag_253:\n        /* \"#utility.yul\":11871:12014   */\n      swap3\n      swap2\n      pop\n      pop\n      jump\t// out\n        /* \"#utility.yul\":12020:12371   */\n    tag_92:\n        /* \"#utility.yul\":12090:12096   */\n      0x00\n        /* \"#utility.yul\":12139:12141   */\n      0x20\n        /* \"#utility.yul\":12127:12136   */\n      dup3\n        /* \"#utility.yul\":12118:12125   */\n      dup5\n        /* \"#utility.yul\":12114:12137   */\n      sub\n        /* \"#utility.yul\":12110:12142   */\n      slt\n        /* \"#utility.yul\":12107:12226   */\n      iszero\n      tag_255\n      jumpi\n        /* \"#utility.yul\":12145:12224   */\n      tag_256\n      tag_99\n      jump\t// in\n    tag_256:\n        /* \"#utility.yul\":12107:12226   */\n    tag_255:\n        /* \"#utility.yul\":12265:12266   */\n      0x00\n        /* \"#utility.yul\":12290:12354   */\n      tag_257\n        /* \"#utility.yul\":12346:12353   */\n      dup5\n        /* \"#utility.yul\":12337:12343   */\n      dup3\n        /* \"#utility.yul\":12326:12335   */\n      dup6\n        /* \"#utility.yul\":12322:12344   */\n      add\n        /* \"#utility.yul\":12290:12354   */\n      tag_134\n      jump\t// in\n    tag_257:\n        /* \"#utility.yul\":12280:12354   */\n      swap2\n      pop\n        /* \"#utility.yul\":12236:12364   */\n      pop\n        /* \"#utility.yul\":12020:12371   */\n      swap3\n      swap2\n      pop\n      pop\n      jump\t// out\n        /* \"#utility.yul\":12377:13041   */\n    tag_94:\n        /* \"#utility.yul\":12582:12586   */\n      0x00\n        /* \"#utility.yul\":12620:12623   */\n      0xa0\n        /* \"#utility.yul\":12609:12618   */\n      dup3\n        /* \"#utility.yul\":12605:12624   */\n      add\n        /* \"#utility.yul\":12597:12624   */\n      swap1\n      pop\n        /* \"#utility.yul\":12634:12705   */\n      tag_259\n        /* \"#utility.yul\":12702:12703   */\n      0x00\n        /* \"#utility.yul\":12691:12700   */\n      dup4\n        /* \"#utility.yul\":12687:12704   */\n      add\n        /* \"#utility.yul\":12678:12684   */\n      dup9\n        /* \"#utility.yul\":12634:12705   */\n      tag_107\n      jump\t// in\n    tag_259:\n        /* \"#utility.yul\":12715:12787   */\n      tag_260\n        /* \"#utility.yul\":12783:12785   */\n      0x20\n        /* \"#utility.yul\":12772:12781   */\n      dup4\n        /* \"#utility.yul\":12768:12786   */\n      add\n        /* \"#utility.yul\":12759:12765   */\n      dup8\n        /* \"#utility.yul\":12715:12787   */\n      tag_107\n      jump\t// in\n    tag_260:\n        /* \"#utility.yul\":12797:12869   */\n      tag_261\n        /* \"#utility.yul\":12865:12867   */\n      0x40\n        /* \"#utility.yul\":12854:12863   */\n      dup4\n        /* \"#utility.yul\":12850:12868   */\n      add\n        /* \"#utility.yul\":12841:12847   */\n      dup7\n        /* \"#utility.yul\":12797:12869   */\n      tag_106\n      jump\t// in\n    tag_261:\n        /* \"#utility.yul\":12879:12951   */\n      tag_262\n        /* \"#utility.yul\":12947:12949   */\n      0x60\n        /* \"#utility.yul\":12936:12945   */\n      dup4\n        /* \"#utility.yul\":12932:12950   */\n      add\n        /* \"#utility.yul\":12923:12929   */\n      dup6\n        /* \"#utility.yul\":12879:12951   */\n      tag_107\n      jump\t// in\n    tag_262:\n        /* \"#utility.yul\":12961:13034   */\n      tag_263\n        /* \"#utility.yul\":13029:13032   */\n      0x80\n        /* \"#utility.yul\":13018:13027   */\n      dup4\n        /* \"#utility.yul\":13014:13033   */\n      add\n        /* \"#utility.yul\":13005:13011   */\n      dup5\n        /* \"#utility.yul\":12961:13034   */\n      tag_106\n      jump\t// in\n    tag_263:\n        /* \"#utility.yul\":12377:13041   */\n      swap7\n      swap6\n      pop\n      pop\n      pop\n      pop\n      pop\n      pop\n      jump\t// out\n        /* \"#utility.yul\":13115:13462   */\n    tag_135:\n        /* \"#utility.yul\":13272:13276   */\n      0x20\n        /* \"#utility.yul\":13267:13270   */\n      dup3\n        /* \"#utility.yul\":13263:13277   */\n      add\n        /* \"#utility.yul\":13363:13367   */\n      0x00\n        /* \"#utility.yul\":13356:13361   */\n      dup3\n        /* \"#utility.yul\":13352:13368   */\n      add\n        /* \"#utility.yul\":13346:13369   */\n      mload\n        /* \"#utility.yul\":13382:13445   */\n      tag_265\n        /* \"#utility.yul\":13439:13443   */\n      0x00\n        /* \"#utility.yul\":13434:13437   */\n      dup6\n        /* \"#utility.yul\":13430:13444   */\n      add\n        /* \"#utility.yul\":13416:13428   */\n      dup3\n        /* \"#utility.yul\":13382:13445   */\n      tag_127\n      jump\t// in\n    tag_265:\n        /* \"#utility.yul\":13287:13455   */\n      pop\n        /* \"#utility.yul\":13241:13462   */\n      pop\n        /* \"#utility.yul\":13115:13462   */\n      pop\n      pop\n      jump\t// out\n        /* \"#utility.yul\":13468:13810   */\n    tag_97:\n        /* \"#utility.yul\":13621:13625   */\n      0x00\n        /* \"#utility.yul\":13659:13661   */\n      0x20\n        /* \"#utility.yul\":13648:13657   */\n      dup3\n        /* \"#utility.yul\":13644:13662   */\n      add\n        /* \"#utility.yul\":13636:13662   */\n      swap1\n      pop\n        /* \"#utility.yul\":13672:13803   */\n      tag_267\n        /* \"#utility.yul\":13800:13801   */\n      0x00\n        /* \"#utility.yul\":13789:13798   */\n      dup4\n        /* \"#utility.yul\":13785:13802   */\n      add\n        /* \"#utility.yul\":13776:13782   */\n      dup5\n        /* \"#utility.yul\":13672:13803   */\n      tag_135\n      jump\t// in\n    tag_267:\n        /* \"#utility.yul\":13468:13810   */\n      swap3\n      swap2\n      pop\n      pop\n      jump\t// out\n\n    auxdata: 0xa26469706673582212205e6565bbc59272dae905412d2fdb274bf1feb7c09c1948824704dbe83672b34064736f6c63430008130033\n}\n",
				"bytecode": {
					"linkReferences": {},
					"object": "6080604052730b9d5d9136855f6fec3c0993fee6e9ce8a297846600360006101000a81548173ffffffffffffffffffffffffffffffffffffffff021916908373ffffffffffffffffffffffffffffffffffffffff16021790555073f694e193200268f9a4868e4aa017a0118c9a8177600460006101000a81548173ffffffffffffffffffffffffffffffffffffffff021916908373ffffffffffffffffffffffffffffffffffffffff16021790555073d21341536c5cf5eb1bcb58f6723ce26e8d8e90e4600560006101000a81548173ffffffffffffffffffffffffffffffffffffffff021916908373ffffffffffffffffffffffffffffffffffffffff16021790555067de41ba4fc9d91ad9600560146101000a81548167ffffffffffffffff021916908367ffffffffffffffff1602179055503480156200014157600080fd5b5033600260006101000a81548173ffffffffffffffffffffffffffffffffffffffff021916908373ffffffffffffffffffffffffffffffffffffffff160217905550600460009054906101000a900473ffffffffffffffffffffffffffffffffffffffff166000806101000a81548173ffffffffffffffffffffffffffffffffffffffff021916908373ffffffffffffffffffffffffffffffffffffffff160217905550600360009054906101000a900473ffffffffffffffffffffffffffffffffffffffff16600160006101000a81548173ffffffffffffffffffffffffffffffffffffffff021916908373ffffffffffffffffffffffffffffffffffffffff160217905550600160009054906101000a900473ffffffffffffffffffffffffffffffffffffffff1673ffffffffffffffffffffffffffffffffffffffff1663095ea7b3600460009054906101000a900473ffffffffffffffffffffffffffffffffffffffff167fffffffffffffffffffffffffffffffffffffffffffffffffffffffffffffffff6040518363ffffffff1660e01b8152600401620002e992919062000396565b6020604051808303816000875af115801562000309573d6000803e3d6000fd5b505050506040513d601f19601f820116820180604052508101906200032f919062000405565b5062000437565b600073ffffffffffffffffffffffffffffffffffffffff82169050919050565b6000620003638262000336565b9050919050565b620003758162000356565b82525050565b6000819050919050565b62000390816200037b565b82525050565b6000604082019050620003ad60008301856200036a565b620003bc602083018462000385565b9392505050565b600080fd5b60008115159050919050565b620003df81620003c8565b8114620003eb57600080fd5b50565b600081519050620003ff81620003d4565b92915050565b6000602082840312156200041e576200041d620003c3565b5b60006200042e84828501620003ee565b91505092915050565b6111b680620004476000396000f3fe608060405234801561001057600080fd5b506004361061004c5760003560e01c80633aeac4e1146100515780636392a51f1461006d5780638da5cb5b1461009e5780639ea604e1146100bc575b600080fd5b61006b60048036038101906100669190610b8c565b6100ec565b005b61008760048036038101906100829190610bcc565b610282565b604051610095929190610c12565b60405180910390f35b6100a66103c6565b6040516100b39190610c4a565b60405180910390f35b6100d660048036038101906100d19190610c91565b6103ec565b6040516100e39190610cea565b60405180910390f35b600260009054906101000a900473ffffffffffffffffffffffffffffffffffffffff1673ffffffffffffffffffffffffffffffffffffffff163373ffffffffffffffffffffffffffffffffffffffff161461014657600080fd5b60008173ffffffffffffffffffffffffffffffffffffffff166370a08231306040518263ffffffff1660e01b81526004016101819190610c4a565b602060405180830381865afa15801561019e573d6000803e3d6000fd5b505050506040513d601f19601f820116820180604052508101906101c29190610d1a565b9050600081036101fe576040517fd0d04f6000000000000000000000000000000000000000000000000000000000815260040160405180910390fd5b8173ffffffffffffffffffffffffffffffffffffffff1663a9059cbb84836040518363ffffffff1660e01b8152600401610239929190610d47565b6020604051808303816000875af1158015610258573d6000803e3d6000fd5b505050506040513d601f19601f8201168201806040525081019061027c9190610da8565b50505050565b600080600160009054906101000a900473ffffffffffffffffffffffffffffffffffffffff1673ffffffffffffffffffffffffffffffffffffffff166370a08231846040518263ffffffff1660e01b81526004016102e09190610c4a565b602060405180830381865afa1580156102fd573d6000803e3d6000fd5b505050506040513d601f19601f820116820180604052508101906103219190610d1a565b9150600560009054906101000a900473ffffffffffffffffffffffffffffffffffffffff1673ffffffffffffffffffffffffffffffffffffffff166370a08231846040518263ffffffff1660e01b815260040161037e9190610c4a565b602060405180830381865afa15801561039b573d6000803e3d6000fd5b505050506040513d601f19601f820116820180604052508101906103bf9190610d1a565b9050915091565b600260009054906101000a900473ffffffffffffffffffffffffffffffffffffffff1681565b600080600167ffffffffffffffff81111561040a57610409610dd5565b5b60405190808252806020026020018201604052801561044357816020015b610430610af9565b8152602001906001900390816104285790505b50905060006040518060400160405280600560009054906101000a900473ffffffffffffffffffffffffffffffffffffffff1673ffffffffffffffffffffffffffffffffffffffff16815260200185815250905080826000815181106104ac576104ab610e04565b5b602002602001018190525060006040518060a00160405280876040516020016104d59190610c4a565b6040516020818303038152906040528152602001604051806020016040528060008152508152602001848152602001600160009054906101000a900473ffffffffffffffffffffffffffffffffffffffff1673ffffffffffffffffffffffffffffffffffffffff16815260200161055a60405180602001604052806000815250610a7a565b815250905060008060009054906101000a900473ffffffffffffffffffffffffffffffffffffffff1673ffffffffffffffffffffffffffffffffffffffff166320487ded600560149054906101000a900467ffffffffffffffff16846040518363ffffffff1660e01b81526004016105d392919061106d565b602060405180830381865afa1580156105f0573d6000803e3d6000fd5b505050506040513d601f19601f820116820180604052508101906106149190610d1a565b9050600160009054906101000a900473ffffffffffffffffffffffffffffffffffffffff1673ffffffffffffffffffffffffffffffffffffffff166370a08231306040518263ffffffff1660e01b81526004016106719190610c4a565b602060405180830381865afa15801561068e573d6000803e3d6000fd5b505050506040513d601f19601f820116820180604052508101906106b29190610d1a565b81111561079357600160009054906101000a900473ffffffffffffffffffffffffffffffffffffffff1673ffffffffffffffffffffffffffffffffffffffff166370a08231306040518263ffffffff1660e01b81526004016107149190610c4a565b602060405180830381865afa158015610731573d6000803e3d6000fd5b505050506040513d601f19601f820116820180604052508101906107559190610d1a565b816040517f8f0f420600000000000000000000000000000000000000000000000000000000815260040161078a929190610c12565b60405180910390fd5b600160009054906101000a900473ffffffffffffffffffffffffffffffffffffffff1673ffffffffffffffffffffffffffffffffffffffff1663095ea7b360008054906101000a900473ffffffffffffffffffffffffffffffffffffffff16836040518363ffffffff1660e01b8152600401610810929190610d47565b6020604051808303816000875af115801561082f573d6000803e3d6000fd5b505050506040513d601f19601f820116820180604052508101906108539190610da8565b50600560009054906101000a900473ffffffffffffffffffffffffffffffffffffffff1673ffffffffffffffffffffffffffffffffffffffff1663095ea7b360008054906101000a900473ffffffffffffffffffffffffffffffffffffffff16886040518363ffffffff1660e01b81526004016108d1929190610d47565b6020604051808303816000875af11580156108f0573d6000803e3d6000fd5b505050506040513d601f19601f820116820180604052508101906109149190610da8565b5060008054906101000a900473ffffffffffffffffffffffffffffffffffffffff1673ffffffffffffffffffffffffffffffffffffffff166396f4e9f9600560149054906101000a900467ffffffffffffffff16846040518363ffffffff1660e01b815260040161098692919061106d565b6020604051808303816000875af11580156109a5573d6000803e3d6000fd5b505050506040513d601f19601f820116820180604052508101906109c991906110c9565b9450600560149054906101000a900467ffffffffffffffff1667ffffffffffffffff16857fc15fb748c32ba4eb29c1c311e78533f93b4425eab49ea87c6fe4279ecadca04389600560009054906101000a900473ffffffffffffffffffffffffffffffffffffffff168a600360009054906101000a900473ffffffffffffffffffffffffffffffffffffffff1687604051610a689594939291906110f6565b60405180910390a35050505092915050565b60606397a657c960e01b82604051602401610a959190611165565b604051602081830303815290604052907bffffffffffffffffffffffffffffffffffffffffffffffffffffffff19166020820180517bffffffffffffffffffffffffffffffffffffffffffffffffffffffff83818316178352505050509050919050565b6040518060400160405280600073ffffffffffffffffffffffffffffffffffffffff168152602001600081525090565b600080fd5b600073ffffffffffffffffffffffffffffffffffffffff82169050919050565b6000610b5982610b2e565b9050919050565b610b6981610b4e565b8114610b7457600080fd5b50565b600081359050610b8681610b60565b92915050565b60008060408385031215610ba357610ba2610b29565b5b6000610bb185828601610b77565b9250506020610bc285828601610b77565b9150509250929050565b600060208284031215610be257610be1610b29565b5b6000610bf084828501610b77565b91505092915050565b6000819050919050565b610c0c81610bf9565b82525050565b6000604082019050610c276000830185610c03565b610c346020830184610c03565b9392505050565b610c4481610b4e565b82525050565b6000602082019050610c5f6000830184610c3b565b92915050565b610c6e81610bf9565b8114610c7957600080fd5b50565b600081359050610c8b81610c65565b92915050565b60008060408385031215610ca857610ca7610b29565b5b6000610cb685828601610b77565b9250506020610cc785828601610c7c565b9150509250929050565b6000819050919050565b610ce481610cd1565b82525050565b6000602082019050610cff6000830184610cdb565b92915050565b600081519050610d1481610c65565b92915050565b600060208284031215610d3057610d2f610b29565b5b6000610d3e84828501610d05565b91505092915050565b6000604082019050610d5c6000830185610c3b565b610d696020830184610c03565b9392505050565b60008115159050919050565b610d8581610d70565b8114610d9057600080fd5b50565b600081519050610da281610d7c565b92915050565b600060208284031215610dbe57610dbd610b29565b5b6000610dcc84828501610d93565b91505092915050565b7f4e487b7100000000000000000000000000000000000000000000000000000000600052604160045260246000fd5b7f4e487b7100000000000000000000000000000000000000000000000000000000600052603260045260246000fd5b600067ffffffffffffffff82169050919050565b610e5081610e33565b82525050565b600081519050919050565b600082825260208201905092915050565b60005b83811015610e90578082015181840152602081019050610e75565b60008484015250505050565b6000601f19601f8301169050919050565b6000610eb882610e56565b610ec28185610e61565b9350610ed2818560208601610e72565b610edb81610e9c565b840191505092915050565b600081519050919050565b600082825260208201905092915050565b6000819050602082019050919050565b610f1b81610b4e565b82525050565b610f2a81610bf9565b82525050565b604082016000820151610f466000850182610f12565b506020820151610f596020850182610f21565b50505050565b6000610f6b8383610f30565b60408301905092915050565b6000602082019050919050565b6000610f8f82610ee6565b610f998185610ef1565b9350610fa483610f02565b8060005b83811015610fd5578151610fbc8882610f5f565b9750610fc783610f77565b925050600181019050610fa8565b5085935050505092915050565b600060a0830160008301518482036000860152610fff8282610ead565b915050602083015184820360208601526110198282610ead565b915050604083015184820360408601526110338282610f84565b91505060608301516110486060860182610f12565b50608083015184820360808601526110608282610ead565b9150508091505092915050565b60006040820190506110826000830185610e47565b81810360208301526110948184610fe2565b90509392505050565b6110a681610cd1565b81146110b157600080fd5b50565b6000815190506110c38161109d565b92915050565b6000602082840312156110df576110de610b29565b5b60006110ed848285016110b4565b91505092915050565b600060a08201905061110b6000830188610c3b565b6111186020830187610c3b565b6111256040830186610c03565b6111326060830185610c3b565b61113f6080830184610c03565b9695505050505050565b60208201600082015161115f6000850182610f21565b50505050565b600060208201905061117a6000830184611149565b9291505056fea26469706673582212205e6565bbc59272dae905412d2fdb274bf1feb7c09c1948824704dbe83672b34064736f6c63430008130033",
					"opcodes": "PUSH1 0x80 PUSH1 0x40 MSTORE PUSH20 0xB9D5D9136855F6FEC3C0993FEE6E9CE8A297846 PUSH1 0x3 PUSH1 0x0 PUSH2 0x100 EXP DUP2 SLOAD DUP2 PUSH20 0xFFFFFFFFFFFFFFFFFFFFFFFFFFFFFFFFFFFFFFFF MUL NOT AND SWAP1 DUP4 PUSH20 0xFFFFFFFFFFFFFFFFFFFFFFFFFFFFFFFFFFFFFFFF AND MUL OR SWAP1 SSTORE POP PUSH20 0xF694E193200268F9A4868E4AA017A0118C9A8177 PUSH1 0x4 PUSH1 0x0 PUSH2 0x100 EXP DUP2 SLOAD DUP2 PUSH20 0xFFFFFFFFFFFFFFFFFFFFFFFFFFFFFFFFFFFFFFFF MUL NOT AND SWAP1 DUP4 PUSH20 0xFFFFFFFFFFFFFFFFFFFFFFFFFFFFFFFFFFFFFFFF AND MUL OR SWAP1 SSTORE POP PUSH20 0xD21341536C5CF5EB1BCB58F6723CE26E8D8E90E4 PUSH1 0x5 PUSH1 0x0 PUSH2 0x100 EXP DUP2 SLOAD DUP2 PUSH20 0xFFFFFFFFFFFFFFFFFFFFFFFFFFFFFFFFFFFFFFFF MUL NOT AND SWAP1 DUP4 PUSH20 0xFFFFFFFFFFFFFFFFFFFFFFFFFFFFFFFFFFFFFFFF AND MUL OR SWAP1 SSTORE POP PUSH8 0xDE41BA4FC9D91AD9 PUSH1 0x5 PUSH1 0x14 PUSH2 0x100 EXP DUP2 SLOAD DUP2 PUSH8 0xFFFFFFFFFFFFFFFF MUL NOT AND SWAP1 DUP4 PUSH8 0xFFFFFFFFFFFFFFFF AND MUL OR SWAP1 SSTORE POP CALLVALUE DUP1 ISZERO PUSH3 0x141 JUMPI PUSH1 0x0 DUP1 REVERT JUMPDEST POP CALLER PUSH1 0x2 PUSH1 0x0 PUSH2 0x100 EXP DUP2 SLOAD DUP2 PUSH20 0xFFFFFFFFFFFFFFFFFFFFFFFFFFFFFFFFFFFFFFFF MUL NOT AND SWAP1 DUP4 PUSH20 0xFFFFFFFFFFFFFFFFFFFFFFFFFFFFFFFFFFFFFFFF AND MUL OR SWAP1 SSTORE POP PUSH1 0x4 PUSH1 0x0 SWAP1 SLOAD SWAP1 PUSH2 0x100 EXP SWAP1 DIV PUSH20 0xFFFFFFFFFFFFFFFFFFFFFFFFFFFFFFFFFFFFFFFF AND PUSH1 0x0 DUP1 PUSH2 0x100 EXP DUP2 SLOAD DUP2 PUSH20 0xFFFFFFFFFFFFFFFFFFFFFFFFFFFFFFFFFFFFFFFF MUL NOT AND SWAP1 DUP4 PUSH20 0xFFFFFFFFFFFFFFFFFFFFFFFFFFFFFFFFFFFFFFFF AND MUL OR SWAP1 SSTORE POP PUSH1 0x3 PUSH1 0x0 SWAP1 SLOAD SWAP1 PUSH2 0x100 EXP SWAP1 DIV PUSH20 0xFFFFFFFFFFFFFFFFFFFFFFFFFFFFFFFFFFFFFFFF AND PUSH1 0x1 PUSH1 0x0 PUSH2 0x100 EXP DUP2 SLOAD DUP2 PUSH20 0xFFFFFFFFFFFFFFFFFFFFFFFFFFFFFFFFFFFFFFFF MUL NOT AND SWAP1 DUP4 PUSH20 0xFFFFFFFFFFFFFFFFFFFFFFFFFFFFFFFFFFFFFFFF AND MUL OR SWAP1 SSTORE POP PUSH1 0x1 PUSH1 0x0 SWAP1 SLOAD SWAP1 PUSH2 0x100 EXP SWAP1 DIV PUSH20 0xFFFFFFFFFFFFFFFFFFFFFFFFFFFFFFFFFFFFFFFF AND PUSH20 0xFFFFFFFFFFFFFFFFFFFFFFFFFFFFFFFFFFFFFFFF AND PUSH4 0x95EA7B3 PUSH1 0x4 PUSH1 0x0 SWAP1 SLOAD SWAP1 PUSH2 0x100 EXP SWAP1 DIV PUSH20 0xFFFFFFFFFFFFFFFFFFFFFFFFFFFFFFFFFFFFFFFF AND PUSH32 0xFFFFFFFFFFFFFFFFFFFFFFFFFFFFFFFFFFFFFFFFFFFFFFFFFFFFFFFFFFFFFFFF PUSH1 0x40 MLOAD DUP4 PUSH4 0xFFFFFFFF AND PUSH1 0xE0 SHL DUP2 MSTORE PUSH1 0x4 ADD PUSH3 0x2E9 SWAP3 SWAP2 SWAP1 PUSH3 0x396 JUMP JUMPDEST PUSH1 0x20 PUSH1 0x40 MLOAD DUP1 DUP4 SUB DUP2 PUSH1 0x0 DUP8 GAS CALL ISZERO DUP1 ISZERO PUSH3 0x309 JUMPI RETURNDATASIZE PUSH1 0x0 DUP1 RETURNDATACOPY RETURNDATASIZE PUSH1 0x0 REVERT JUMPDEST POP POP POP POP PUSH1 0x40 MLOAD RETURNDATASIZE PUSH1 0x1F NOT PUSH1 0x1F DUP3 ADD AND DUP3 ADD DUP1 PUSH1 0x40 MSTORE POP DUP2 ADD SWAP1 PUSH3 0x32F SWAP2 SWAP1 PUSH3 0x405 JUMP JUMPDEST POP PUSH3 0x437 JUMP JUMPDEST PUSH1 0x0 PUSH20 0xFFFFFFFFFFFFFFFFFFFFFFFFFFFFFFFFFFFFFFFF DUP3 AND SWAP1 POP SWAP2 SWAP1 POP JUMP JUMPDEST PUSH1 0x0 PUSH3 0x363 DUP3 PUSH3 0x336 JUMP JUMPDEST SWAP1 POP SWAP2 SWAP1 POP JUMP JUMPDEST PUSH3 0x375 DUP2 PUSH3 0x356 JUMP JUMPDEST DUP3 MSTORE POP POP JUMP JUMPDEST PUSH1 0x0 DUP2 SWAP1 POP SWAP2 SWAP1 POP JUMP JUMPDEST PUSH3 0x390 DUP2 PUSH3 0x37B JUMP JUMPDEST DUP3 MSTORE POP POP JUMP JUMPDEST PUSH1 0x0 PUSH1 0x40 DUP3 ADD SWAP1 POP PUSH3 0x3AD PUSH1 0x0 DUP4 ADD DUP6 PUSH3 0x36A JUMP JUMPDEST PUSH3 0x3BC PUSH1 0x20 DUP4 ADD DUP5 PUSH3 0x385 JUMP JUMPDEST SWAP4 SWAP3 POP POP POP JUMP JUMPDEST PUSH1 0x0 DUP1 REVERT JUMPDEST PUSH1 0x0 DUP2 ISZERO ISZERO SWAP1 POP SWAP2 SWAP1 POP JUMP JUMPDEST PUSH3 0x3DF DUP2 PUSH3 0x3C8 JUMP JUMPDEST DUP2 EQ PUSH3 0x3EB JUMPI PUSH1 0x0 DUP1 REVERT JUMPDEST POP JUMP JUMPDEST PUSH1 0x0 DUP2 MLOAD SWAP1 POP PUSH3 0x3FF DUP2 PUSH3 0x3D4 JUMP JUMPDEST SWAP3 SWAP2 POP POP JUMP JUMPDEST PUSH1 0x0 PUSH1 0x20 DUP3 DUP5 SUB SLT ISZERO PUSH3 0x41E JUMPI PUSH3 0x41D PUSH3 0x3C3 JUMP JUMPDEST JUMPDEST PUSH1 0x0 PUSH3 0x42E DUP5 DUP3 DUP6 ADD PUSH3 0x3EE JUMP JUMPDEST SWAP2 POP POP SWAP3 SWAP2 POP POP JUMP JUMPDEST PUSH2 0x11B6 DUP1 PUSH3 0x447 PUSH1 0x0 CODECOPY PUSH1 0x0 RETURN INVALID PUSH1 0x80 PUSH1 0x40 MSTORE CALLVALUE DUP1 ISZERO PUSH2 0x10 JUMPI PUSH1 0x0 DUP1 REVERT JUMPDEST POP PUSH1 0x4 CALLDATASIZE LT PUSH2 0x4C JUMPI PUSH1 0x0 CALLDATALOAD PUSH1 0xE0 SHR DUP1 PUSH4 0x3AEAC4E1 EQ PUSH2 0x51 JUMPI DUP1 PUSH4 0x6392A51F EQ PUSH2 0x6D JUMPI DUP1 PUSH4 0x8DA5CB5B EQ PUSH2 0x9E JUMPI DUP1 PUSH4 0x9EA604E1 EQ PUSH2 0xBC JUMPI JUMPDEST PUSH1 0x0 DUP1 REVERT JUMPDEST PUSH2 0x6B PUSH1 0x4 DUP1 CALLDATASIZE SUB DUP2 ADD SWAP1 PUSH2 0x66 SWAP2 SWAP1 PUSH2 0xB8C JUMP JUMPDEST PUSH2 0xEC JUMP JUMPDEST STOP JUMPDEST PUSH2 0x87 PUSH1 0x4 DUP1 CALLDATASIZE SUB DUP2 ADD SWAP1 PUSH2 0x82 SWAP2 SWAP1 PUSH2 0xBCC JUMP JUMPDEST PUSH2 0x282 JUMP JUMPDEST PUSH1 0x40 MLOAD PUSH2 0x95 SWAP3 SWAP2 SWAP1 PUSH2 0xC12 JUMP JUMPDEST PUSH1 0x40 MLOAD DUP1 SWAP2 SUB SWAP1 RETURN JUMPDEST PUSH2 0xA6 PUSH2 0x3C6 JUMP JUMPDEST PUSH1 0x40 MLOAD PUSH2 0xB3 SWAP2 SWAP1 PUSH2 0xC4A JUMP JUMPDEST PUSH1 0x40 MLOAD DUP1 SWAP2 SUB SWAP1 RETURN JUMPDEST PUSH2 0xD6 PUSH1 0x4 DUP1 CALLDATASIZE SUB DUP2 ADD SWAP1 PUSH2 0xD1 SWAP2 SWAP1 PUSH2 0xC91 JUMP JUMPDEST PUSH2 0x3EC JUMP JUMPDEST PUSH1 0x40 MLOAD PUSH2 0xE3 SWAP2 SWAP1 PUSH2 0xCEA JUMP JUMPDEST PUSH1 0x40 MLOAD DUP1 SWAP2 SUB SWAP1 RETURN JUMPDEST PUSH1 0x2 PUSH1 0x0 SWAP1 SLOAD SWAP1 PUSH2 0x100 EXP SWAP1 DIV PUSH20 0xFFFFFFFFFFFFFFFFFFFFFFFFFFFFFFFFFFFFFFFF AND PUSH20 0xFFFFFFFFFFFFFFFFFFFFFFFFFFFFFFFFFFFFFFFF AND CALLER PUSH20 0xFFFFFFFFFFFFFFFFFFFFFFFFFFFFFFFFFFFFFFFF AND EQ PUSH2 0x146 JUMPI PUSH1 0x0 DUP1 REVERT JUMPDEST PUSH1 0x0 DUP2 PUSH20 0xFFFFFFFFFFFFFFFFFFFFFFFFFFFFFFFFFFFFFFFF AND PUSH4 0x70A08231 ADDRESS PUSH1 0x40 MLOAD DUP3 PUSH4 0xFFFFFFFF AND PUSH1 0xE0 SHL DUP2 MSTORE PUSH1 0x4 ADD PUSH2 0x181 SWAP2 SWAP1 PUSH2 0xC4A JUMP JUMPDEST PUSH1 0x20 PUSH1 0x40 MLOAD DUP1 DUP4 SUB DUP2 DUP7 GAS STATICCALL ISZERO DUP1 ISZERO PUSH2 0x19E JUMPI RETURNDATASIZE PUSH1 0x0 DUP1 RETURNDATACOPY RETURNDATASIZE PUSH1 0x0 REVERT JUMPDEST POP POP POP POP PUSH1 0x40 MLOAD RETURNDATASIZE PUSH1 0x1F NOT PUSH1 0x1F DUP3 ADD AND DUP3 ADD DUP1 PUSH1 0x40 MSTORE POP DUP2 ADD SWAP1 PUSH2 0x1C2 SWAP2 SWAP1 PUSH2 0xD1A JUMP JUMPDEST SWAP1 POP PUSH1 0x0 DUP2 SUB PUSH2 0x1FE JUMPI PUSH1 0x40 MLOAD PUSH32 0xD0D04F6000000000000000000000000000000000000000000000000000000000 DUP2 MSTORE PUSH1 0x4 ADD PUSH1 0x40 MLOAD DUP1 SWAP2 SUB SWAP1 REVERT JUMPDEST DUP2 PUSH20 0xFFFFFFFFFFFFFFFFFFFFFFFFFFFFFFFFFFFFFFFF AND PUSH4 0xA9059CBB DUP5 DUP4 PUSH1 0x40 MLOAD DUP4 PUSH4 0xFFFFFFFF AND PUSH1 0xE0 SHL DUP2 MSTORE PUSH1 0x4 ADD PUSH2 0x239 SWAP3 SWAP2 SWAP1 PUSH2 0xD47 JUMP JUMPDEST PUSH1 0x20 PUSH1 0x40 MLOAD DUP1 DUP4 SUB DUP2 PUSH1 0x0 DUP8 GAS CALL ISZERO DUP1 ISZERO PUSH2 0x258 JUMPI RETURNDATASIZE PUSH1 0x0 DUP1 RETURNDATACOPY RETURNDATASIZE PUSH1 0x0 REVERT JUMPDEST POP POP POP POP PUSH1 0x40 MLOAD RETURNDATASIZE PUSH1 0x1F NOT PUSH1 0x1F DUP3 ADD AND DUP3 ADD DUP1 PUSH1 0x40 MSTORE POP DUP2 ADD SWAP1 PUSH2 0x27C SWAP2 SWAP1 PUSH2 0xDA8 JUMP JUMPDEST POP POP POP POP JUMP JUMPDEST PUSH1 0x0 DUP1 PUSH1 0x1 PUSH1 0x0 SWAP1 SLOAD SWAP1 PUSH2 0x100 EXP SWAP1 DIV PUSH20 0xFFFFFFFFFFFFFFFFFFFFFFFFFFFFFFFFFFFFFFFF AND PUSH20 0xFFFFFFFFFFFFFFFFFFFFFFFFFFFFFFFFFFFFFFFF AND PUSH4 0x70A08231 DUP5 PUSH1 0x40 MLOAD DUP3 PUSH4 0xFFFFFFFF AND PUSH1 0xE0 SHL DUP2 MSTORE PUSH1 0x4 ADD PUSH2 0x2E0 SWAP2 SWAP1 PUSH2 0xC4A JUMP JUMPDEST PUSH1 0x20 PUSH1 0x40 MLOAD DUP1 DUP4 SUB DUP2 DUP7 GAS STATICCALL ISZERO DUP1 ISZERO PUSH2 0x2FD JUMPI RETURNDATASIZE PUSH1 0x0 DUP1 RETURNDATACOPY RETURNDATASIZE PUSH1 0x0 REVERT JUMPDEST POP POP POP POP PUSH1 0x40 MLOAD RETURNDATASIZE PUSH1 0x1F NOT PUSH1 0x1F DUP3 ADD AND DUP3 ADD DUP1 PUSH1 0x40 MSTORE POP DUP2 ADD SWAP1 PUSH2 0x321 SWAP2 SWAP1 PUSH2 0xD1A JUMP JUMPDEST SWAP2 POP PUSH1 0x5 PUSH1 0x0 SWAP1 SLOAD SWAP1 PUSH2 0x100 EXP SWAP1 DIV PUSH20 0xFFFFFFFFFFFFFFFFFFFFFFFFFFFFFFFFFFFFFFFF AND PUSH20 0xFFFFFFFFFFFFFFFFFFFFFFFFFFFFFFFFFFFFFFFF AND PUSH4 0x70A08231 DUP5 PUSH1 0x40 MLOAD DUP3 PUSH4 0xFFFFFFFF AND PUSH1 0xE0 SHL DUP2 MSTORE PUSH1 0x4 ADD PUSH2 0x37E SWAP2 SWAP1 PUSH2 0xC4A JUMP JUMPDEST PUSH1 0x20 PUSH1 0x40 MLOAD DUP1 DUP4 SUB DUP2 DUP7 GAS STATICCALL ISZERO DUP1 ISZERO PUSH2 0x39B JUMPI RETURNDATASIZE PUSH1 0x0 DUP1 RETURNDATACOPY RETURNDATASIZE PUSH1 0x0 REVERT JUMPDEST POP POP POP POP PUSH1 0x40 MLOAD RETURNDATASIZE PUSH1 0x1F NOT PUSH1 0x1F DUP3 ADD AND DUP3 ADD DUP1 PUSH1 0x40 MSTORE POP DUP2 ADD SWAP1 PUSH2 0x3BF SWAP2 SWAP1 PUSH2 0xD1A JUMP JUMPDEST SWAP1 POP SWAP2 POP SWAP2 JUMP JUMPDEST PUSH1 0x2 PUSH1 0x0 SWAP1 SLOAD SWAP1 PUSH2 0x100 EXP SWAP1 DIV PUSH20 0xFFFFFFFFFFFFFFFFFFFFFFFFFFFFFFFFFFFFFFFF AND DUP2 JUMP JUMPDEST PUSH1 0x0 DUP1 PUSH1 0x1 PUSH8 0xFFFFFFFFFFFFFFFF DUP2 GT ISZERO PUSH2 0x40A JUMPI PUSH2 0x409 PUSH2 0xDD5 JUMP JUMPDEST JUMPDEST PUSH1 0x40 MLOAD SWAP1 DUP1 DUP3 MSTORE DUP1 PUSH1 0x20 MUL PUSH1 0x20 ADD DUP3 ADD PUSH1 0x40 MSTORE DUP1 ISZERO PUSH2 0x443 JUMPI DUP2 PUSH1 0x20 ADD JUMPDEST PUSH2 0x430 PUSH2 0xAF9 JUMP JUMPDEST DUP2 MSTORE PUSH1 0x20 ADD SWAP1 PUSH1 0x1 SWAP1 SUB SWAP1 DUP2 PUSH2 0x428 JUMPI SWAP1 POP JUMPDEST POP SWAP1 POP PUSH1 0x0 PUSH1 0x40 MLOAD DUP1 PUSH1 0x40 ADD PUSH1 0x40 MSTORE DUP1 PUSH1 0x5 PUSH1 0x0 SWAP1 SLOAD SWAP1 PUSH2 0x100 EXP SWAP1 DIV PUSH20 0xFFFFFFFFFFFFFFFFFFFFFFFFFFFFFFFFFFFFFFFF AND PUSH20 0xFFFFFFFFFFFFFFFFFFFFFFFFFFFFFFFFFFFFFFFF AND DUP2 MSTORE PUSH1 0x20 ADD DUP6 DUP2 MSTORE POP SWAP1 POP DUP1 DUP3 PUSH1 0x0 DUP2 MLOAD DUP2 LT PUSH2 0x4AC JUMPI PUSH2 0x4AB PUSH2 0xE04 JUMP JUMPDEST JUMPDEST PUSH1 0x20 MUL PUSH1 0x20 ADD ADD DUP2 SWAP1 MSTORE POP PUSH1 0x0 PUSH1 0x40 MLOAD DUP1 PUSH1 0xA0 ADD PUSH1 0x40 MSTORE DUP1 DUP8 PUSH1 0x40 MLOAD PUSH1 0x20 ADD PUSH2 0x4D5 SWAP2 SWAP1 PUSH2 0xC4A JUMP JUMPDEST PUSH1 0x40 MLOAD PUSH1 0x20 DUP2 DUP4 SUB SUB DUP2 MSTORE SWAP1 PUSH1 0x40 MSTORE DUP2 MSTORE PUSH1 0x20 ADD PUSH1 0x40 MLOAD DUP1 PUSH1 0x20 ADD PUSH1 0x40 MSTORE DUP1 PUSH1 0x0 DUP2 MSTORE POP DUP2 MSTORE PUSH1 0x20 ADD DUP5 DUP2 MSTORE PUSH1 0x20 ADD PUSH1 0x1 PUSH1 0x0 SWAP1 SLOAD SWAP1 PUSH2 0x100 EXP SWAP1 DIV PUSH20 0xFFFFFFFFFFFFFFFFFFFFFFFFFFFFFFFFFFFFFFFF AND PUSH20 0xFFFFFFFFFFFFFFFFFFFFFFFFFFFFFFFFFFFFFFFF AND DUP2 MSTORE PUSH1 0x20 ADD PUSH2 0x55A PUSH1 0x40 MLOAD DUP1 PUSH1 0x20 ADD PUSH1 0x40 MSTORE DUP1 PUSH1 0x0 DUP2 MSTORE POP PUSH2 0xA7A JUMP JUMPDEST DUP2 MSTORE POP SWAP1 POP PUSH1 0x0 DUP1 PUSH1 0x0 SWAP1 SLOAD SWAP1 PUSH2 0x100 EXP SWAP1 DIV PUSH20 0xFFFFFFFFFFFFFFFFFFFFFFFFFFFFFFFFFFFFFFFF AND PUSH20 0xFFFFFFFFFFFFFFFFFFFFFFFFFFFFFFFFFFFFFFFF AND PUSH4 0x20487DED PUSH1 0x5 PUSH1 0x14 SWAP1 SLOAD SWAP1 PUSH2 0x100 EXP SWAP1 DIV PUSH8 0xFFFFFFFFFFFFFFFF AND DUP5 PUSH1 0x40 MLOAD DUP4 PUSH4 0xFFFFFFFF AND PUSH1 0xE0 SHL DUP2 MSTORE PUSH1 0x4 ADD PUSH2 0x5D3 SWAP3 SWAP2 SWAP1 PUSH2 0x106D JUMP JUMPDEST PUSH1 0x20 PUSH1 0x40 MLOAD DUP1 DUP4 SUB DUP2 DUP7 GAS STATICCALL ISZERO DUP1 ISZERO PUSH2 0x5F0 JUMPI RETURNDATASIZE PUSH1 0x0 DUP1 RETURNDATACOPY RETURNDATASIZE PUSH1 0x0 REVERT JUMPDEST POP POP POP POP PUSH1 0x40 MLOAD RETURNDATASIZE PUSH1 0x1F NOT PUSH1 0x1F DUP3 ADD AND DUP3 ADD DUP1 PUSH1 0x40 MSTORE POP DUP2 ADD SWAP1 PUSH2 0x614 SWAP2 SWAP1 PUSH2 0xD1A JUMP JUMPDEST SWAP1 POP PUSH1 0x1 PUSH1 0x0 SWAP1 SLOAD SWAP1 PUSH2 0x100 EXP SWAP1 DIV PUSH20 0xFFFFFFFFFFFFFFFFFFFFFFFFFFFFFFFFFFFFFFFF AND PUSH20 0xFFFFFFFFFFFFFFFFFFFFFFFFFFFFFFFFFFFFFFFF AND PUSH4 0x70A08231 ADDRESS PUSH1 0x40 MLOAD DUP3 PUSH4 0xFFFFFFFF AND PUSH1 0xE0 SHL DUP2 MSTORE PUSH1 0x4 ADD PUSH2 0x671 SWAP2 SWAP1 PUSH2 0xC4A JUMP JUMPDEST PUSH1 0x20 PUSH1 0x40 MLOAD DUP1 DUP4 SUB DUP2 DUP7 GAS STATICCALL ISZERO DUP1 ISZERO PUSH2 0x68E JUMPI RETURNDATASIZE PUSH1 0x0 DUP1 RETURNDATACOPY RETURNDATASIZE PUSH1 0x0 REVERT JUMPDEST POP POP POP POP PUSH1 0x40 MLOAD RETURNDATASIZE PUSH1 0x1F NOT PUSH1 0x1F DUP3 ADD AND DUP3 ADD DUP1 PUSH1 0x40 MSTORE POP DUP2 ADD SWAP1 PUSH2 0x6B2 SWAP2 SWAP1 PUSH2 0xD1A JUMP JUMPDEST DUP2 GT ISZERO PUSH2 0x793 JUMPI PUSH1 0x1 PUSH1 0x0 SWAP1 SLOAD SWAP1 PUSH2 0x100 EXP SWAP1 DIV PUSH20 0xFFFFFFFFFFFFFFFFFFFFFFFFFFFFFFFFFFFFFFFF AND PUSH20 0xFFFFFFFFFFFFFFFFFFFFFFFFFFFFFFFFFFFFFFFF AND PUSH4 0x70A08231 ADDRESS PUSH1 0x40 MLOAD DUP3 PUSH4 0xFFFFFFFF AND PUSH1 0xE0 SHL DUP2 MSTORE PUSH1 0x4 ADD PUSH2 0x714 SWAP2 SWAP1 PUSH2 0xC4A JUMP JUMPDEST PUSH1 0x20 PUSH1 0x40 MLOAD DUP1 DUP4 SUB DUP2 DUP7 GAS STATICCALL ISZERO DUP1 ISZERO PUSH2 0x731 JUMPI RETURNDATASIZE PUSH1 0x0 DUP1 RETURNDATACOPY RETURNDATASIZE PUSH1 0x0 REVERT JUMPDEST POP POP POP POP PUSH1 0x40 MLOAD RETURNDATASIZE PUSH1 0x1F NOT PUSH1 0x1F DUP3 ADD AND DUP3 ADD DUP1 PUSH1 0x40 MSTORE POP DUP2 ADD SWAP1 PUSH2 0x755 SWAP2 SWAP1 PUSH2 0xD1A JUMP JUMPDEST DUP2 PUSH1 0x40 MLOAD PUSH32 0x8F0F420600000000000000000000000000000000000000000000000000000000 DUP2 MSTORE PUSH1 0x4 ADD PUSH2 0x78A SWAP3 SWAP2 SWAP1 PUSH2 0xC12 JUMP JUMPDEST PUSH1 0x40 MLOAD DUP1 SWAP2 SUB SWAP1 REVERT JUMPDEST PUSH1 0x1 PUSH1 0x0 SWAP1 SLOAD SWAP1 PUSH2 0x100 EXP SWAP1 DIV PUSH20 0xFFFFFFFFFFFFFFFFFFFFFFFFFFFFFFFFFFFFFFFF AND PUSH20 0xFFFFFFFFFFFFFFFFFFFFFFFFFFFFFFFFFFFFFFFF AND PUSH4 0x95EA7B3 PUSH1 0x0 DUP1 SLOAD SWAP1 PUSH2 0x100 EXP SWAP1 DIV PUSH20 0xFFFFFFFFFFFFFFFFFFFFFFFFFFFFFFFFFFFFFFFF AND DUP4 PUSH1 0x40 MLOAD DUP4 PUSH4 0xFFFFFFFF AND PUSH1 0xE0 SHL DUP2 MSTORE PUSH1 0x4 ADD PUSH2 0x810 SWAP3 SWAP2 SWAP1 PUSH2 0xD47 JUMP JUMPDEST PUSH1 0x20 PUSH1 0x40 MLOAD DUP1 DUP4 SUB DUP2 PUSH1 0x0 DUP8 GAS CALL ISZERO DUP1 ISZERO PUSH2 0x82F JUMPI RETURNDATASIZE PUSH1 0x0 DUP1 RETURNDATACOPY RETURNDATASIZE PUSH1 0x0 REVERT JUMPDEST POP POP POP POP PUSH1 0x40 MLOAD RETURNDATASIZE PUSH1 0x1F NOT PUSH1 0x1F DUP3 ADD AND DUP3 ADD DUP1 PUSH1 0x40 MSTORE POP DUP2 ADD SWAP1 PUSH2 0x853 SWAP2 SWAP1 PUSH2 0xDA8 JUMP JUMPDEST POP PUSH1 0x5 PUSH1 0x0 SWAP1 SLOAD SWAP1 PUSH2 0x100 EXP SWAP1 DIV PUSH20 0xFFFFFFFFFFFFFFFFFFFFFFFFFFFFFFFFFFFFFFFF AND PUSH20 0xFFFFFFFFFFFFFFFFFFFFFFFFFFFFFFFFFFFFFFFF AND PUSH4 0x95EA7B3 PUSH1 0x0 DUP1 SLOAD SWAP1 PUSH2 0x100 EXP SWAP1 DIV PUSH20 0xFFFFFFFFFFFFFFFFFFFFFFFFFFFFFFFFFFFFFFFF AND DUP9 PUSH1 0x40 MLOAD DUP4 PUSH4 0xFFFFFFFF AND PUSH1 0xE0 SHL DUP2 MSTORE PUSH1 0x4 ADD PUSH2 0x8D1 SWAP3 SWAP2 SWAP1 PUSH2 0xD47 JUMP JUMPDEST PUSH1 0x20 PUSH1 0x40 MLOAD DUP1 DUP4 SUB DUP2 PUSH1 0x0 DUP8 GAS CALL ISZERO DUP1 ISZERO PUSH2 0x8F0 JUMPI RETURNDATASIZE PUSH1 0x0 DUP1 RETURNDATACOPY RETURNDATASIZE PUSH1 0x0 REVERT JUMPDEST POP POP POP POP PUSH1 0x40 MLOAD RETURNDATASIZE PUSH1 0x1F NOT PUSH1 0x1F DUP3 ADD AND DUP3 ADD DUP1 PUSH1 0x40 MSTORE POP DUP2 ADD SWAP1 PUSH2 0x914 SWAP2 SWAP1 PUSH2 0xDA8 JUMP JUMPDEST POP PUSH1 0x0 DUP1 SLOAD SWAP1 PUSH2 0x100 EXP SWAP1 DIV PUSH20 0xFFFFFFFFFFFFFFFFFFFFFFFFFFFFFFFFFFFFFFFF AND PUSH20 0xFFFFFFFFFFFFFFFFFFFFFFFFFFFFFFFFFFFFFFFF AND PUSH4 0x96F4E9F9 PUSH1 0x5 PUSH1 0x14 SWAP1 SLOAD SWAP1 PUSH2 0x100 EXP SWAP1 DIV PUSH8 0xFFFFFFFFFFFFFFFF AND DUP5 PUSH1 0x40 MLOAD DUP4 PUSH4 0xFFFFFFFF AND PUSH1 0xE0 SHL DUP2 MSTORE PUSH1 0x4 ADD PUSH2 0x986 SWAP3 SWAP2 SWAP1 PUSH2 0x106D JUMP JUMPDEST PUSH1 0x20 PUSH1 0x40 MLOAD DUP1 DUP4 SUB DUP2 PUSH1 0x0 DUP8 GAS CALL ISZERO DUP1 ISZERO PUSH2 0x9A5 JUMPI RETURNDATASIZE PUSH1 0x0 DUP1 RETURNDATACOPY RETURNDATASIZE PUSH1 0x0 REVERT JUMPDEST POP POP POP POP PUSH1 0x40 MLOAD RETURNDATASIZE PUSH1 0x1F NOT PUSH1 0x1F DUP3 ADD AND DUP3 ADD DUP1 PUSH1 0x40 MSTORE POP DUP2 ADD SWAP1 PUSH2 0x9C9 SWAP2 SWAP1 PUSH2 0x10C9 JUMP JUMPDEST SWAP5 POP PUSH1 0x5 PUSH1 0x14 SWAP1 SLOAD SWAP1 PUSH2 0x100 EXP SWAP1 DIV PUSH8 0xFFFFFFFFFFFFFFFF AND PUSH8 0xFFFFFFFFFFFFFFFF AND DUP6 PUSH32 0xC15FB748C32BA4EB29C1C311E78533F93B4425EAB49EA87C6FE4279ECADCA043 DUP10 PUSH1 0x5 PUSH1 0x0 SWAP1 SLOAD SWAP1 PUSH2 0x100 EXP SWAP1 DIV PUSH20 0xFFFFFFFFFFFFFFFFFFFFFFFFFFFFFFFFFFFFFFFF AND DUP11 PUSH1 0x3 PUSH1 0x0 SWAP1 SLOAD SWAP1 PUSH2 0x100 EXP SWAP1 DIV PUSH20 0xFFFFFFFFFFFFFFFFFFFFFFFFFFFFFFFFFFFFFFFF AND DUP8 PUSH1 0x40 MLOAD PUSH2 0xA68 SWAP6 SWAP5 SWAP4 SWAP3 SWAP2 SWAP1 PUSH2 0x10F6 JUMP JUMPDEST PUSH1 0x40 MLOAD DUP1 SWAP2 SUB SWAP1 LOG3 POP POP POP POP SWAP3 SWAP2 POP POP JUMP JUMPDEST PUSH1 0x60 PUSH4 0x97A657C9 PUSH1 0xE0 SHL DUP3 PUSH1 0x40 MLOAD PUSH1 0x24 ADD PUSH2 0xA95 SWAP2 SWAP1 PUSH2 0x1165 JUMP JUMPDEST PUSH1 0x40 MLOAD PUSH1 0x20 DUP2 DUP4 SUB SUB DUP2 MSTORE SWAP1 PUSH1 0x40 MSTORE SWAP1 PUSH28 0xFFFFFFFFFFFFFFFFFFFFFFFFFFFFFFFFFFFFFFFFFFFFFFFFFFFFFFFF NOT AND PUSH1 0x20 DUP3 ADD DUP1 MLOAD PUSH28 0xFFFFFFFFFFFFFFFFFFFFFFFFFFFFFFFFFFFFFFFFFFFFFFFFFFFFFFFF DUP4 DUP2 DUP4 AND OR DUP4 MSTORE POP POP POP POP SWAP1 POP SWAP2 SWAP1 POP JUMP JUMPDEST PUSH1 0x40 MLOAD DUP1 PUSH1 0x40 ADD PUSH1 0x40 MSTORE DUP1 PUSH1 0x0 PUSH20 0xFFFFFFFFFFFFFFFFFFFFFFFFFFFFFFFFFFFFFFFF AND DUP2 MSTORE PUSH1 0x20 ADD PUSH1 0x0 DUP2 MSTORE POP SWAP1 JUMP JUMPDEST PUSH1 0x0 DUP1 REVERT JUMPDEST PUSH1 0x0 PUSH20 0xFFFFFFFFFFFFFFFFFFFFFFFFFFFFFFFFFFFFFFFF DUP3 AND SWAP1 POP SWAP2 SWAP1 POP JUMP JUMPDEST PUSH1 0x0 PUSH2 0xB59 DUP3 PUSH2 0xB2E JUMP JUMPDEST SWAP1 POP SWAP2 SWAP1 POP JUMP JUMPDEST PUSH2 0xB69 DUP2 PUSH2 0xB4E JUMP JUMPDEST DUP2 EQ PUSH2 0xB74 JUMPI PUSH1 0x0 DUP1 REVERT JUMPDEST POP JUMP JUMPDEST PUSH1 0x0 DUP2 CALLDATALOAD SWAP1 POP PUSH2 0xB86 DUP2 PUSH2 0xB60 JUMP JUMPDEST SWAP3 SWAP2 POP POP JUMP JUMPDEST PUSH1 0x0 DUP1 PUSH1 0x40 DUP4 DUP6 SUB SLT ISZERO PUSH2 0xBA3 JUMPI PUSH2 0xBA2 PUSH2 0xB29 JUMP JUMPDEST JUMPDEST PUSH1 0x0 PUSH2 0xBB1 DUP6 DUP3 DUP7 ADD PUSH2 0xB77 JUMP JUMPDEST SWAP3 POP POP PUSH1 0x20 PUSH2 0xBC2 DUP6 DUP3 DUP7 ADD PUSH2 0xB77 JUMP JUMPDEST SWAP2 POP POP SWAP3 POP SWAP3 SWAP1 POP JUMP JUMPDEST PUSH1 0x0 PUSH1 0x20 DUP3 DUP5 SUB SLT ISZERO PUSH2 0xBE2 JUMPI PUSH2 0xBE1 PUSH2 0xB29 JUMP JUMPDEST JUMPDEST PUSH1 0x0 PUSH2 0xBF0 DUP5 DUP3 DUP6 ADD PUSH2 0xB77 JUMP JUMPDEST SWAP2 POP POP SWAP3 SWAP2 POP POP JUMP JUMPDEST PUSH1 0x0 DUP2 SWAP1 POP SWAP2 SWAP1 POP JUMP JUMPDEST PUSH2 0xC0C DUP2 PUSH2 0xBF9 JUMP JUMPDEST DUP3 MSTORE POP POP JUMP JUMPDEST PUSH1 0x0 PUSH1 0x40 DUP3 ADD SWAP1 POP PUSH2 0xC27 PUSH1 0x0 DUP4 ADD DUP6 PUSH2 0xC03 JUMP JUMPDEST PUSH2 0xC34 PUSH1 0x20 DUP4 ADD DUP5 PUSH2 0xC03 JUMP JUMPDEST SWAP4 SWAP3 POP POP POP JUMP JUMPDEST PUSH2 0xC44 DUP2 PUSH2 0xB4E JUMP JUMPDEST DUP3 MSTORE POP POP JUMP JUMPDEST PUSH1 0x0 PUSH1 0x20 DUP3 ADD SWAP1 POP PUSH2 0xC5F PUSH1 0x0 DUP4 ADD DUP5 PUSH2 0xC3B JUMP JUMPDEST SWAP3 SWAP2 POP POP JUMP JUMPDEST PUSH2 0xC6E DUP2 PUSH2 0xBF9 JUMP JUMPDEST DUP2 EQ PUSH2 0xC79 JUMPI PUSH1 0x0 DUP1 REVERT JUMPDEST POP JUMP JUMPDEST PUSH1 0x0 DUP2 CALLDATALOAD SWAP1 POP PUSH2 0xC8B DUP2 PUSH2 0xC65 JUMP JUMPDEST SWAP3 SWAP2 POP POP JUMP JUMPDEST PUSH1 0x0 DUP1 PUSH1 0x40 DUP4 DUP6 SUB SLT ISZERO PUSH2 0xCA8 JUMPI PUSH2 0xCA7 PUSH2 0xB29 JUMP JUMPDEST JUMPDEST PUSH1 0x0 PUSH2 0xCB6 DUP6 DUP3 DUP7 ADD PUSH2 0xB77 JUMP JUMPDEST SWAP3 POP POP PUSH1 0x20 PUSH2 0xCC7 DUP6 DUP3 DUP7 ADD PUSH2 0xC7C JUMP JUMPDEST SWAP2 POP POP SWAP3 POP SWAP3 SWAP1 POP JUMP JUMPDEST PUSH1 0x0 DUP2 SWAP1 POP SWAP2 SWAP1 POP JUMP JUMPDEST PUSH2 0xCE4 DUP2 PUSH2 0xCD1 JUMP JUMPDEST DUP3 MSTORE POP POP JUMP JUMPDEST PUSH1 0x0 PUSH1 0x20 DUP3 ADD SWAP1 POP PUSH2 0xCFF PUSH1 0x0 DUP4 ADD DUP5 PUSH2 0xCDB JUMP JUMPDEST SWAP3 SWAP2 POP POP JUMP JUMPDEST PUSH1 0x0 DUP2 MLOAD SWAP1 POP PUSH2 0xD14 DUP2 PUSH2 0xC65 JUMP JUMPDEST SWAP3 SWAP2 POP POP JUMP JUMPDEST PUSH1 0x0 PUSH1 0x20 DUP3 DUP5 SUB SLT ISZERO PUSH2 0xD30 JUMPI PUSH2 0xD2F PUSH2 0xB29 JUMP JUMPDEST JUMPDEST PUSH1 0x0 PUSH2 0xD3E DUP5 DUP3 DUP6 ADD PUSH2 0xD05 JUMP JUMPDEST SWAP2 POP POP SWAP3 SWAP2 POP POP JUMP JUMPDEST PUSH1 0x0 PUSH1 0x40 DUP3 ADD SWAP1 POP PUSH2 0xD5C PUSH1 0x0 DUP4 ADD DUP6 PUSH2 0xC3B JUMP JUMPDEST PUSH2 0xD69 PUSH1 0x20 DUP4 ADD DUP5 PUSH2 0xC03 JUMP JUMPDEST SWAP4 SWAP3 POP POP POP JUMP JUMPDEST PUSH1 0x0 DUP2 ISZERO ISZERO SWAP1 POP SWAP2 SWAP1 POP JUMP JUMPDEST PUSH2 0xD85 DUP2 PUSH2 0xD70 JUMP JUMPDEST DUP2 EQ PUSH2 0xD90 JUMPI PUSH1 0x0 DUP1 REVERT JUMPDEST POP JUMP JUMPDEST PUSH1 0x0 DUP2 MLOAD SWAP1 POP PUSH2 0xDA2 DUP2 PUSH2 0xD7C JUMP JUMPDEST SWAP3 SWAP2 POP POP JUMP JUMPDEST PUSH1 0x0 PUSH1 0x20 DUP3 DUP5 SUB SLT ISZERO PUSH2 0xDBE JUMPI PUSH2 0xDBD PUSH2 0xB29 JUMP JUMPDEST JUMPDEST PUSH1 0x0 PUSH2 0xDCC DUP5 DUP3 DUP6 ADD PUSH2 0xD93 JUMP JUMPDEST SWAP2 POP POP SWAP3 SWAP2 POP POP JUMP JUMPDEST PUSH32 0x4E487B7100000000000000000000000000000000000000000000000000000000 PUSH1 0x0 MSTORE PUSH1 0x41 PUSH1 0x4 MSTORE PUSH1 0x24 PUSH1 0x0 REVERT JUMPDEST PUSH32 0x4E487B7100000000000000000000000000000000000000000000000000000000 PUSH1 0x0 MSTORE PUSH1 0x32 PUSH1 0x4 MSTORE PUSH1 0x24 PUSH1 0x0 REVERT JUMPDEST PUSH1 0x0 PUSH8 0xFFFFFFFFFFFFFFFF DUP3 AND SWAP1 POP SWAP2 SWAP1 POP JUMP JUMPDEST PUSH2 0xE50 DUP2 PUSH2 0xE33 JUMP JUMPDEST DUP3 MSTORE POP POP JUMP JUMPDEST PUSH1 0x0 DUP2 MLOAD SWAP1 POP SWAP2 SWAP1 POP JUMP JUMPDEST PUSH1 0x0 DUP3 DUP3 MSTORE PUSH1 0x20 DUP3 ADD SWAP1 POP SWAP3 SWAP2 POP POP JUMP JUMPDEST PUSH1 0x0 JUMPDEST DUP4 DUP2 LT ISZERO PUSH2 0xE90 JUMPI DUP1 DUP3 ADD MLOAD DUP2 DUP5 ADD MSTORE PUSH1 0x20 DUP2 ADD SWAP1 POP PUSH2 0xE75 JUMP JUMPDEST PUSH1 0x0 DUP5 DUP5 ADD MSTORE POP POP POP POP JUMP JUMPDEST PUSH1 0x0 PUSH1 0x1F NOT PUSH1 0x1F DUP4 ADD AND SWAP1 POP SWAP2 SWAP1 POP JUMP JUMPDEST PUSH1 0x0 PUSH2 0xEB8 DUP3 PUSH2 0xE56 JUMP JUMPDEST PUSH2 0xEC2 DUP2 DUP6 PUSH2 0xE61 JUMP JUMPDEST SWAP4 POP PUSH2 0xED2 DUP2 DUP6 PUSH1 0x20 DUP7 ADD PUSH2 0xE72 JUMP JUMPDEST PUSH2 0xEDB DUP2 PUSH2 0xE9C JUMP JUMPDEST DUP5 ADD SWAP2 POP POP SWAP3 SWAP2 POP POP JUMP JUMPDEST PUSH1 0x0 DUP2 MLOAD SWAP1 POP SWAP2 SWAP1 POP JUMP JUMPDEST PUSH1 0x0 DUP3 DUP3 MSTORE PUSH1 0x20 DUP3 ADD SWAP1 POP SWAP3 SWAP2 POP POP JUMP JUMPDEST PUSH1 0x0 DUP2 SWAP1 POP PUSH1 0x20 DUP3 ADD SWAP1 POP SWAP2 SWAP1 POP JUMP JUMPDEST PUSH2 0xF1B DUP2 PUSH2 0xB4E JUMP JUMPDEST DUP3 MSTORE POP POP JUMP JUMPDEST PUSH2 0xF2A DUP2 PUSH2 0xBF9 JUMP JUMPDEST DUP3 MSTORE POP POP JUMP JUMPDEST PUSH1 0x40 DUP3 ADD PUSH1 0x0 DUP3 ADD MLOAD PUSH2 0xF46 PUSH1 0x0 DUP6 ADD DUP3 PUSH2 0xF12 JUMP JUMPDEST POP PUSH1 0x20 DUP3 ADD MLOAD PUSH2 0xF59 PUSH1 0x20 DUP6 ADD DUP3 PUSH2 0xF21 JUMP JUMPDEST POP POP POP POP JUMP JUMPDEST PUSH1 0x0 PUSH2 0xF6B DUP4 DUP4 PUSH2 0xF30 JUMP JUMPDEST PUSH1 0x40 DUP4 ADD SWAP1 POP SWAP3 SWAP2 POP POP JUMP JUMPDEST PUSH1 0x0 PUSH1 0x20 DUP3 ADD SWAP1 POP SWAP2 SWAP1 POP JUMP JUMPDEST PUSH1 0x0 PUSH2 0xF8F DUP3 PUSH2 0xEE6 JUMP JUMPDEST PUSH2 0xF99 DUP2 DUP6 PUSH2 0xEF1 JUMP JUMPDEST SWAP4 POP PUSH2 0xFA4 DUP4 PUSH2 0xF02 JUMP JUMPDEST DUP1 PUSH1 0x0 JUMPDEST DUP4 DUP2 LT ISZERO PUSH2 0xFD5 JUMPI DUP2 MLOAD PUSH2 0xFBC DUP9 DUP3 PUSH2 0xF5F JUMP JUMPDEST SWAP8 POP PUSH2 0xFC7 DUP4 PUSH2 0xF77 JUMP JUMPDEST SWAP3 POP POP PUSH1 0x1 DUP2 ADD SWAP1 POP PUSH2 0xFA8 JUMP JUMPDEST POP DUP6 SWAP4 POP POP POP POP SWAP3 SWAP2 POP POP JUMP JUMPDEST PUSH1 0x0 PUSH1 0xA0 DUP4 ADD PUSH1 0x0 DUP4 ADD MLOAD DUP5 DUP3 SUB PUSH1 0x0 DUP7 ADD MSTORE PUSH2 0xFFF DUP3 DUP3 PUSH2 0xEAD JUMP JUMPDEST SWAP2 POP POP PUSH1 0x20 DUP4 ADD MLOAD DUP5 DUP3 SUB PUSH1 0x20 DUP7 ADD MSTORE PUSH2 0x1019 DUP3 DUP3 PUSH2 0xEAD JUMP JUMPDEST SWAP2 POP POP PUSH1 0x40 DUP4 ADD MLOAD DUP5 DUP3 SUB PUSH1 0x40 DUP7 ADD MSTORE PUSH2 0x1033 DUP3 DUP3 PUSH2 0xF84 JUMP JUMPDEST SWAP2 POP POP PUSH1 0x60 DUP4 ADD MLOAD PUSH2 0x1048 PUSH1 0x60 DUP7 ADD DUP3 PUSH2 0xF12 JUMP JUMPDEST POP PUSH1 0x80 DUP4 ADD MLOAD DUP5 DUP3 SUB PUSH1 0x80 DUP7 ADD MSTORE PUSH2 0x1060 DUP3 DUP3 PUSH2 0xEAD JUMP JUMPDEST SWAP2 POP POP DUP1 SWAP2 POP POP SWAP3 SWAP2 POP POP JUMP JUMPDEST PUSH1 0x0 PUSH1 0x40 DUP3 ADD SWAP1 POP PUSH2 0x1082 PUSH1 0x0 DUP4 ADD DUP6 PUSH2 0xE47 JUMP JUMPDEST DUP2 DUP2 SUB PUSH1 0x20 DUP4 ADD MSTORE PUSH2 0x1094 DUP2 DUP5 PUSH2 0xFE2 JUMP JUMPDEST SWAP1 POP SWAP4 SWAP3 POP POP POP JUMP JUMPDEST PUSH2 0x10A6 DUP2 PUSH2 0xCD1 JUMP JUMPDEST DUP2 EQ PUSH2 0x10B1 JUMPI PUSH1 0x0 DUP1 REVERT JUMPDEST POP JUMP JUMPDEST PUSH1 0x0 DUP2 MLOAD SWAP1 POP PUSH2 0x10C3 DUP2 PUSH2 0x109D JUMP JUMPDEST SWAP3 SWAP2 POP POP JUMP JUMPDEST PUSH1 0x0 PUSH1 0x20 DUP3 DUP5 SUB SLT ISZERO PUSH2 0x10DF JUMPI PUSH2 0x10DE PUSH2 0xB29 JUMP JUMPDEST JUMPDEST PUSH1 0x0 PUSH2 0x10ED DUP5 DUP3 DUP6 ADD PUSH2 0x10B4 JUMP JUMPDEST SWAP2 POP POP SWAP3 SWAP2 POP POP JUMP JUMPDEST PUSH1 0x0 PUSH1 0xA0 DUP3 ADD SWAP1 POP PUSH2 0x110B PUSH1 0x0 DUP4 ADD DUP9 PUSH2 0xC3B JUMP JUMPDEST PUSH2 0x1118 PUSH1 0x20 DUP4 ADD DUP8 PUSH2 0xC3B JUMP JUMPDEST PUSH2 0x1125 PUSH1 0x40 DUP4 ADD DUP7 PUSH2 0xC03 JUMP JUMPDEST PUSH2 0x1132 PUSH1 0x60 DUP4 ADD DUP6 PUSH2 0xC3B JUMP JUMPDEST PUSH2 0x113F PUSH1 0x80 DUP4 ADD DUP5 PUSH2 0xC03 JUMP JUMPDEST SWAP7 SWAP6 POP POP POP POP POP POP JUMP JUMPDEST PUSH1 0x20 DUP3 ADD PUSH1 0x0 DUP3 ADD MLOAD PUSH2 0x115F PUSH1 0x0 DUP6 ADD DUP3 PUSH2 0xF21 JUMP JUMPDEST POP POP POP POP JUMP JUMPDEST PUSH1 0x0 PUSH1 0x20 DUP3 ADD SWAP1 POP PUSH2 0x117A PUSH1 0x0 DUP4 ADD DUP5 PUSH2 0x1149 JUMP JUMPDEST SWAP3 SWAP2 POP POP JUMP INVALID LOG2 PUSH5 0x6970667358 0x22 SLT KECCAK256 0x5E PUSH6 0x65BBC59272DA 0xE9 SDIV COINBASE 0x2D 0x2F 0xDB 0x27 0x4B CALL INVALID 0xB7 0xC0 SWAP13 NOT BASEFEE DUP3 SELFBALANCE DIV 0xDB 0xE8 CALLDATASIZE PUSH19 0xB34064736F6C63430008130033000000000000 "
				},
				"gasEstimates": {
					"creation": {
						"codeDepositCost": "906800",
						"executionCost": "infinite",
						"totalCost": "infinite"
					},
					"external": {
						"balancesOf(address)": "infinite",
						"owner()": "2536",
						"transferToSepolia(address,uint256)": "infinite",
						"withdrawToken(address,address)": "infinite"
					}
				},
				"methodIdentifiers": {
					"balancesOf(address)": "6392a51f",
					"owner()": "8da5cb5b",
					"transferToSepolia(address,uint256)": "9ea604e1",
					"withdrawToken(address,address)": "3aeac4e1"
				}
			},
			"storageLayout": {
				"storage": [
					{
						"astId": 292,
						"contract": "CCIPTokenSenderFujiSepolia.sol:CCIPTokenSenderFujiSepolia",
						"label": "router",
						"offset": 0,
						"slot": "0",
						"type": "t_contract(IRouterClient)51"
					},
					{
						"astId": 295,
						"contract": "CCIPTokenSenderFujiSepolia.sol:CCIPTokenSenderFujiSepolia",
						"label": "linkToken",
						"offset": 0,
						"slot": "1",
						"type": "t_contract(LinkTokenInterface)279"
					},
					{
						"astId": 297,
						"contract": "CCIPTokenSenderFujiSepolia.sol:CCIPTokenSenderFujiSepolia",
						"label": "owner",
						"offset": 0,
						"slot": "2",
						"type": "t_address"
					},
					{
						"astId": 300,
						"contract": "CCIPTokenSenderFujiSepolia.sol:CCIPTokenSenderFujiSepolia",
						"label": "link",
						"offset": 0,
						"slot": "3",
						"type": "t_address"
					},
					{
						"astId": 303,
						"contract": "CCIPTokenSenderFujiSepolia.sol:CCIPTokenSenderFujiSepolia",
						"label": "routerAddress",
						"offset": 0,
						"slot": "4",
						"type": "t_address"
					},
					{
						"astId": 306,
						"contract": "CCIPTokenSenderFujiSepolia.sol:CCIPTokenSenderFujiSepolia",
						"label": "bnmToken",
						"offset": 0,
						"slot": "5",
						"type": "t_address"
					},
					{
						"astId": 309,
						"contract": "CCIPTokenSenderFujiSepolia.sol:CCIPTokenSenderFujiSepolia",
						"label": "destinationChainSelector",
						"offset": 20,
						"slot": "5",
						"type": "t_uint64"
					}
				],
				"types": {
					"t_address": {
						"encoding": "inplace",
						"label": "address",
						"numberOfBytes": "20"
					},
					"t_contract(IRouterClient)51": {
						"encoding": "inplace",
						"label": "contract IRouterClient",
						"numberOfBytes": "20"
					},
					"t_contract(LinkTokenInterface)279": {
						"encoding": "inplace",
						"label": "contract LinkTokenInterface",
						"numberOfBytes": "20"
					},
					"t_uint64": {
						"encoding": "inplace",
						"label": "uint64",
						"numberOfBytes": "8"
					}
				}
			},
			"userdoc": {
				"kind": "user",
				"methods": {},
				"version": 1
			}
		}
	}
}